{
  "contractName": "AccessRegistry",
  "abi": [
    {
      "inputs": [
        {
          "name": "_message",
          "type": "address"
        }
      ],
      "payable": false,
      "stateMutability": "nonpayable",
      "type": "constructor",
      "signature": "constructor"
    },
    {
      "constant": true,
      "inputs": [
        {
          "name": "directory",
          "type": "uint256"
        }
      ],
      "name": "getDir",
      "outputs": [
        {
          "name": "",
          "type": "string"
        },
        {
          "name": "",
          "type": "bytes32"
        }
      ],
      "payable": false,
      "stateMutability": "view",
      "type": "function",
      "signature": "0x751c2a79"
    },
    {
      "constant": true,
      "inputs": [
        {
          "name": "directory",
          "type": "uint256"
        },
        {
          "name": "pubKey",
          "type": "string"
        },
        {
          "name": "privKey",
          "type": "string"
        }
      ],
      "name": "createDir",
      "outputs": [
        {
          "name": "",
          "type": "string"
        },
        {
          "name": "",
          "type": "bytes32"
        }
      ],
      "payable": false,
      "stateMutability": "view",
      "type": "function",
      "signature": "0xf26d5a8f"
    },
    {
      "constant": false,
      "inputs": [
        {
          "name": "priv",
          "type": "string"
        },
        {
          "name": "pub",
          "type": "string"
        }
      ],
      "name": "addKeyPair",
      "outputs": [],
      "payable": false,
      "stateMutability": "nonpayable",
      "type": "function",
      "signature": "0x3e006ba6"
    },
    {
      "constant": false,
      "inputs": [
        {
          "name": "dir",
          "type": "uint256"
        },
        {
          "name": "",
          "type": "address"
        },
        {
          "name": "trustee",
          "type": "address"
        }
      ],
      "name": "addTrustee",
      "outputs": [],
      "payable": false,
      "stateMutability": "nonpayable",
      "type": "function",
      "signature": "0x3154fc3d"
    }
  ],
  "bytecode": "0x608060405234801561001057600080fd5b50604051602080610b878339810180604052602081101561003057600080fd5b505160008054600160a060020a0319908116331790915560048054600160a060020a0390931692909116919091179055610b188061006f6000396000f3fe6080604052600436106100615763ffffffff7c01000000000000000000000000000000000000000000000000000000006000350416633154fc3d81146100665780633e006ba6146100b6578063751c2a79146101f0578063f26d5a8f14610299575b600080fd5b34801561007257600080fd5b506100b46004803603606081101561008957600080fd5b5080359073ffffffffffffffffffffffffffffffffffffffff602082013581169160400135166103da565b005b3480156100c257600080fd5b506100b4600480360360408110156100d957600080fd5b8101906020810181356401000000008111156100f457600080fd5b82018360208201111561010657600080fd5b8035906020019184600183028401116401000000008311171561012857600080fd5b91908080601f016020809104026020016040519081016040528093929190818152602001838380828437600092019190915250929594936020810193503591505064010000000081111561017b57600080fd5b82018360208201111561018d57600080fd5b803590602001918460018302840111640100000000831117156101af57600080fd5b91908080601f0160208091040260200160405190810160405280939291908181526020018383808284376000920191909152509295506107d1945050505050565b3480156101fc57600080fd5b5061021a6004803603602081101561021357600080fd5b503561087b565b6040518080602001838152602001828103825284818151815260200191508051906020019080838360005b8381101561025d578181015183820152602001610245565b50505050905090810190601f16801561028a5780820380516001836020036101000a031916815260200191505b50935050505060405180910390f35b3480156102a557600080fd5b5061021a600480360360608110156102bc57600080fd5b813591908101906040810160208201356401000000008111156102de57600080fd5b8201836020820111156102f057600080fd5b8035906020019184600183028401116401000000008311171561031257600080fd5b91908080601f016020809104026020016040519081016040528093929190818152602001838380828437600092019190915250929594936020810193503591505064010000000081111561036557600080fd5b82018360208201111561037757600080fd5b8035906020019184600183028401116401000000008311171561039957600080fd5b91908080601f016020809104026020016040519081016040528093929190818152602001838380828437600092019190915250929550610965945050505050565b60005473ffffffffffffffffffffffffffffffffffffffff1633146103fe57600080fd5b600083815260026020818152604080842073ffffffffffffffffffffffffffffffffffffffff8616855260018082018452828620805460ff19168217905594889052838352600301805482516101009682161596909602600019011693909304601f810183900483028501830190915280845260609392918301828280156104c75780601f1061049c576101008083540402835291602001916104c7565b820191906000526020600020905b8154815290600101906020018083116104aa57829003601f168201915b505050600087815260026020818152604092839020600401805484516001821615610100026000190190911693909304601f81018390048302840183019094528383529596506060959194509092508301828280156105675780601f1061053c57610100808354040283529160200191610567565b820191906000526020600020905b81548152906001019060200180831161054a57829003601f168201915b50505050509050600460009054906101000a900473ffffffffffffffffffffffffffffffffffffffff1673ffffffffffffffffffffffffffffffffffffffff166313a276ea83836040516020018083805190602001908083835b602083106105e05780518252601f1990920191602091820191016105c1565b51815160209384036101000a60001901801990921691161790527f2f6e000000000000000000000000000000000000000000000000000000000000919093019081528451600290910192850191508083835b602083106106515780518252601f199092019160209182019101610632565b51815160209384036101000a60001901801990921691161790526040805192909401828103601f190183529384905263ffffffff88167c010000000000000000000000000000000000000000000000000000000002845273ffffffffffffffffffffffffffffffffffffffff8c1660248501526060600485019081528251606486015282519297508c965094508493604481019350608401919087019080838360005b8381101561070c5781810151838201526020016106f4565b50505050905090810190601f1680156107395780820380516001836020036101000a031916815260200191505b50838103825260278152602001807f796f7520686176652061636365737320746f207468697320757365727320646981526020017f726563746f727900000000000000000000000000000000000000000000000000815250604001945050505050600060405180830381600087803b1580156107b457600080fd5b5060325a03f11580156107c657600080fd5b505050505050505050565b60005473ffffffffffffffffffffffffffffffffffffffff1633146107f557600080fd5b60038054600190810190915560405183518392918591819060208401908083835b602083106108355780518252601f199092019160209182019101610816565b51815160209384036101000a600019018019909216911617905292019485525060405193849003810190932084516108769591949190910192509050610a51565b505050565b6000818152600260209081526040808320338452600190810190925282205460609291849160ff161515146108af57600080fd5b600084815260026020818152604092839020805484516001821615610100026000190190911693909304601f810183900483028401830190945283835260609390918301828280156109425780601f1061091757610100808354040283529160200191610942565b820191906000526020600020905b81548152906001019060200180831161092557829003601f168201915b505050600097885250506002602081905260409096209095015494959350505050565b6000838152600260209081526040808320338452600190810190925282205460609291869160ff1615151461099957600080fd5b600086815260026020818152604092839020805484516001821615610100026000190190911693909304601f81018390048302840183019094528383526060939091830182828015610a2c5780601f10610a0157610100808354040283529160200191610a2c565b820191906000526020600020905b815481529060010190602001808311610a0f57829003601f168201915b5050506000998a52505060026020819052604090982090970154969795505050505050565b828054600181600116156101000203166002900490600052602060002090601f016020900481019282601f10610a9257805160ff1916838001178555610abf565b82800160010185558215610abf579182015b82811115610abf578251825591602001919060010190610aa4565b50610acb929150610acf565b5090565b610ae991905b80821115610acb5760008155600101610ad5565b9056fea165627a7a7230582035477c0e18fc8199bcc4c1995b8aac512ca88134cca4eaea0d6259d3aeb424840029",
  "source": "pragma solidity 0.5.0;\n//import \"./SafeMath.sol\";\nimport {Message} from \"./Message.sol\";\n//import \"./MerkleTrie.sol\";\n//import \"./Owned.sol\";\n\n\n//             /\\                                                                     /\\\n//   _         )( ______________________                       ______________________ )(         _\n//  (_)///////(**)______________________>  Private Contract   <______________________(**)\\\\\\\\\\\\\\(_)\n//             )(                                                                     )(\n//             \\/                          EZEKIEL 29:19 KJV                          \\/\n\ncontract AccessRegistry{\n\n    struct Directory {\n        string name;\n        mapping (address => bool) trustees;\n        bytes32 root;\n        string priv;\n        string pub;\n    }\n\n    address owner;\n// mapping of pub keys to priv keys uint is the directory\n    mapping(string => string)keysPairs;\n    mapping (uint => Directory) private Directories;\n    uint dirCounter;\n    Message message;\n\n    constructor (Message _message) public{\n        owner = msg.sender;\n        message = Message(_message);\n    }\n\n    modifier onlyOwner {\n        require(msg.sender == owner);\n        _;\n    }\n\n    modifier onlyTrustee(uint _directory) {\n        require(Directories[_directory].trustees[msg.sender] == true);\n        _;\n    }\n\n    function getDir (uint directory) onlyTrustee(directory) public view returns\n                    (string memory, bytes32){\n        string memory name = Directories[directory].name;\n        bytes32 direc = Directories[directory].root;\n        return (name, direc);\n    }\n\n    function createDir (uint directory, string memory pubKey, string memory privKey)\n                        onlyTrustee(directory) public view returns(string memory, bytes32){\n        string memory name = Directories[directory].name;\n        bytes32 dir = Directories[directory].root;\n        return (name, dir);\n    }\n\n    function addKeyPair(string memory priv, string memory pub)public onlyOwner(){\n        dirCounter++;\n        keysPairs[priv] = pub;\n    }\n\n    function addTrustee(uint dir, address, address trustee)public onlyOwner(){\n        Directories[dir].trustees[trustee] = true;\n        string memory priv = Directories[dir].priv;\n        string memory pub = Directories[dir].pub;\n        message.sendMessage(string(abi.encodePacked(priv, \"/n\", pub)), trustee, \n                                            'you have access to this users directory');\n    }\n}",
  "sourcePath": "/home/a/Documents/d1/dapp1/Dapp/contracts/AccessRegistry.sol",
  "compiler": {
    "name": "solc",
    "version": "0.5.0+commit.1d4f565a.Emscripten.clang"
  },
  "schemaVersion": "3.0.5",
  "updatedAt": "2021-03-24T20:13:42.120Z",
  "devdoc": {
    "methods": {}
  },
  "userdoc": {
    "methods": {}
  }
}