{
  "contractName": "Incidents",
  "abi": [
    {
      "constant": true,
      "inputs": [
        {
          "name": "",
          "type": "address"
        }
      ],
      "name": "usersLeftRepTo",
      "outputs": [
        {
          "name": "user",
          "type": "address"
        },
        {
          "name": "message",
          "type": "string"
        },
        {
          "name": "amount",
          "type": "uint256"
        }
      ],
      "payable": false,
      "stateMutability": "view",
      "type": "function",
      "signature": "0x78554ba9"
    },
    {
      "constant": true,
      "inputs": [],
      "name": "incidentsAmount",
      "outputs": [
        {
          "name": "",
          "type": "uint256"
        }
      ],
      "payable": false,
      "stateMutability": "view",
      "type": "function",
      "signature": "0x7c713c93"
    },
    {
      "constant": true,
      "inputs": [],
      "name": "owner",
      "outputs": [
        {
          "name": "",
          "type": "address"
        }
      ],
      "payable": false,
      "stateMutability": "view",
      "type": "function",
      "signature": "0x8da5cb5b"
    },
    {
      "inputs": [],
      "payable": false,
      "stateMutability": "nonpayable",
      "type": "constructor",
      "signature": "constructor"
    },
    {
      "anonymous": false,
      "inputs": [
        {
          "indexed": false,
          "name": "incidentID",
          "type": "uint256"
        },
        {
          "indexed": false,
          "name": "location",
          "type": "string"
        }
      ],
      "name": "incidentReported",
      "type": "event",
      "signature": "0x7992ee7c384b49cd136a36e6682785226900ef68faa52635cb8abfc098f7f238"
    },
    {
      "anonymous": false,
      "inputs": [
        {
          "indexed": false,
          "name": "incidentID",
          "type": "uint256"
        }
      ],
      "name": "incidentVerified",
      "type": "event",
      "signature": "0x4a0205388910c806cdb60fbb8047d990b5693a8d413c79cf41747f340676aafb"
    },
    {
      "anonymous": false,
      "inputs": [
        {
          "indexed": false,
          "name": "",
          "type": "address"
        }
      ],
      "name": "voted",
      "type": "event",
      "signature": "0xaec2ccae8681fd01ad220ecb7e9b5f7d485b1cc3cc01599acb1578016b30a6bd"
    },
    {
      "anonymous": false,
      "inputs": [
        {
          "indexed": false,
          "name": "",
          "type": "address"
        }
      ],
      "name": "promoted",
      "type": "event",
      "signature": "0x99410fa937577082e4e0f5ac52d2c3645b14e16271626ab8d4834a2b7fd23bf1"
    },
    {
      "constant": false,
      "inputs": [
        {
          "name": "_verifier",
          "type": "address"
        }
      ],
      "name": "createVerifier",
      "outputs": [],
      "payable": false,
      "stateMutability": "nonpayable",
      "type": "function",
      "signature": "0x1e2bd532"
    },
    {
      "constant": false,
      "inputs": [
        {
          "name": "_evidence",
          "type": "string"
        },
        {
          "name": "_image",
          "type": "bool"
        },
        {
          "name": "_incidentID",
          "type": "uint256"
        }
      ],
      "name": "addEvidence",
      "outputs": [],
      "payable": true,
      "stateMutability": "payable",
      "type": "function",
      "signature": "0x5321a0fe"
    },
    {
      "constant": false,
      "inputs": [
        {
          "name": "_description",
          "type": "string"
        },
        {
          "name": "_longitude",
          "type": "string"
        },
        {
          "name": "_latitude",
          "type": "string"
        },
        {
          "name": "_time",
          "type": "uint256"
        }
      ],
      "name": "setBeacon",
      "outputs": [],
      "payable": true,
      "stateMutability": "payable",
      "type": "function",
      "signature": "0xb441e1f3"
    },
    {
      "constant": true,
      "inputs": [
        {
          "name": "id",
          "type": "uint256"
        }
      ],
      "name": "getBeacon",
      "outputs": [
        {
          "name": "description",
          "type": "string"
        },
        {
          "name": "lng",
          "type": "string"
        },
        {
          "name": "lat",
          "type": "string"
        }
      ],
      "payable": false,
      "stateMutability": "view",
      "type": "function",
      "signature": "0x90caecc2"
    },
    {
      "constant": false,
      "inputs": [],
      "name": "addAmount",
      "outputs": [],
      "payable": true,
      "stateMutability": "payable",
      "type": "function",
      "signature": "0xb9c14577"
    },
    {
      "constant": true,
      "inputs": [],
      "name": "getIncidentAmount",
      "outputs": [
        {
          "name": "",
          "type": "uint256"
        }
      ],
      "payable": false,
      "stateMutability": "view",
      "type": "function",
      "signature": "0xc24d6776"
    },
    {
      "constant": false,
      "inputs": [
        {
          "name": "_description",
          "type": "string"
        },
        {
          "name": "_willTestify",
          "type": "bool"
        },
        {
          "name": "_incidentID",
          "type": "uint256"
        }
      ],
      "name": "createWitnessReport",
      "outputs": [],
      "payable": true,
      "stateMutability": "payable",
      "type": "function",
      "signature": "0xa6f5de10"
    },
    {
      "constant": false,
      "inputs": [
        {
          "name": "_incidentID",
          "type": "uint256"
        },
        {
          "name": "_verdict",
          "type": "bool"
        },
        {
          "name": "_description",
          "type": "string"
        }
      ],
      "name": "verifyIncident",
      "outputs": [],
      "payable": true,
      "stateMutability": "payable",
      "type": "function",
      "signature": "0x544b69c0"
    },
    {
      "constant": false,
      "inputs": [
        {
          "name": "_name",
          "type": "string"
        },
        {
          "name": "_description",
          "type": "string"
        },
        {
          "name": "_location",
          "type": "string"
        }
      ],
      "name": "createAccount",
      "outputs": [],
      "payable": true,
      "stateMutability": "payable",
      "type": "function",
      "signature": "0xbc53c0c4"
    },
    {
      "constant": true,
      "inputs": [],
      "name": "myProfile",
      "outputs": [
        {
          "name": "name",
          "type": "string"
        },
        {
          "name": "description",
          "type": "string"
        },
        {
          "name": "location",
          "type": "string"
        },
        {
          "name": "add",
          "type": "address"
        }
      ],
      "payable": false,
      "stateMutability": "view",
      "type": "function",
      "signature": "0x350c2be2"
    }
  ],
  "bytecode": "0x608060405234801561001057600080fd5b5060028054600160a060020a0319167364ece92b79b096c2771131870c6b7ebae8c2bd7e179055611465806100466000396000f3fe6080604052600436106100c45763ffffffff7c01000000000000000000000000000000000000000000000000000000006000350416631e2bd53281146100c9578063350c2be21461010b5780635321a0fe14610280578063544b69c01461032d57806378554ba9146103e15780637c713c93146104bc5780638da5cb5b146104e357806390caecc214610521578063a6f5de101461068f578063b441e1f31461073c578063b9c14577146108f2578063bc53c0c4146108fa578063c24d677614610aae575b600080fd5b3480156100d557600080fd5b50610109600480360360208110156100ec57600080fd5b503573ffffffffffffffffffffffffffffffffffffffff16610ac3565b005b34801561011757600080fd5b50610120610b07565b6040805173ffffffffffffffffffffffffffffffffffffffff83166060820152608080825286519082015285519091829160208084019284019160a08501918a019080838360005b83811015610180578181015183820152602001610168565b50505050905090810190601f1680156101ad5780820380516001836020036101000a031916815260200191505b50848103835287518152875160209182019189019080838360005b838110156101e05781810151838201526020016101c8565b50505050905090810190601f16801561020d5780820380516001836020036101000a031916815260200191505b50848103825286518152865160209182019188019080838360005b83811015610240578181015183820152602001610228565b50505050905090810190601f16801561026d5780820380516001836020036101000a031916815260200191505b5097505050505050505060405180910390f35b6101096004803603606081101561029657600080fd5b8101906020810181356401000000008111156102b157600080fd5b8201836020820111156102c357600080fd5b803590602001918460018302840111640100000000831117156102e557600080fd5b91908080601f01602080910402602001604051908101604052809392919081815260200183838082843760009201919091525092955050505080351515915060200135610d43565b6101096004803603606081101561034357600080fd5b813591602081013515159181019060608101604082013564010000000081111561036c57600080fd5b82018360208201111561037e57600080fd5b803590602001918460018302840111640100000000831117156103a057600080fd5b91908080601f016020809104026020016040519081016040528093929190818152602001838380828437600092019190915250929550610d87945050505050565b3480156103ed57600080fd5b506104216004803603602081101561040457600080fd5b503573ffffffffffffffffffffffffffffffffffffffff16610f05565b6040805173ffffffffffffffffffffffffffffffffffffffff85168152908101829052606060208083018281528551928401929092528451608084019186019080838360005b8381101561047f578181015183820152602001610467565b50505050905090810190601f1680156104ac5780820380516001836020036101000a031916815260200191505b5094505050505060405180910390f35b3480156104c857600080fd5b506104d1610fcc565b60408051918252519081900360200190f35b3480156104ef57600080fd5b506104f8610fd2565b6040805173ffffffffffffffffffffffffffffffffffffffff9092168252519081900360200190f35b34801561052d57600080fd5b5061054b6004803603602081101561054457600080fd5b5035610fee565b60405180806020018060200180602001848103845287818151815260200191508051906020019080838360005b83811015610590578181015183820152602001610578565b50505050905090810190601f1680156105bd5780820380516001836020036101000a031916815260200191505b50848103835286518152865160209182019188019080838360005b838110156105f05781810151838201526020016105d8565b50505050905090810190601f16801561061d5780820380516001836020036101000a031916815260200191505b50848103825285518152855160209182019187019080838360005b83811015610650578181015183820152602001610638565b50505050905090810190601f16801561067d5780820380516001836020036101000a031916815260200191505b50965050505050505060405180910390f35b610109600480360360608110156106a557600080fd5b8101906020810181356401000000008111156106c057600080fd5b8201836020820111156106d257600080fd5b803590602001918460018302840111640100000000831117156106f457600080fd5b91908080601f016020809104026020016040519081016040528093929190818152602001838380828437600092019190915250929550505050803515159150602001356111e2565b6101096004803603608081101561075257600080fd5b81019060208101813564010000000081111561076d57600080fd5b82018360208201111561077f57600080fd5b803590602001918460018302840111640100000000831117156107a157600080fd5b91908080601f01602080910402602001604051908101604052809392919081815260200183838082843760009201919091525092959493602081019350359150506401000000008111156107f457600080fd5b82018360208201111561080657600080fd5b8035906020019184600183028401116401000000008311171561082857600080fd5b91908080601f016020809104026020016040519081016040528093929190818152602001838380828437600092019190915250929594936020810193503591505064010000000081111561087b57600080fd5b82018360208201111561088d57600080fd5b803590602001918460018302840111640100000000831117156108af57600080fd5b91908080601f016020809104026020016040519081016040528093929190818152602001838380828437600092019190915250929550509135925061127e915050565b61010961130a565b6101096004803603606081101561091057600080fd5b81019060208101813564010000000081111561092b57600080fd5b82018360208201111561093d57600080fd5b8035906020019184600183028401116401000000008311171561095f57600080fd5b91908080601f01602080910402602001604051908101604052809392919081815260200183838082843760009201919091525092959493602081019350359150506401000000008111156109b257600080fd5b8201836020820111156109c457600080fd5b803590602001918460018302840111640100000000831117156109e657600080fd5b91908080601f0160208091040260200160405190810160405280939291908181526020018383808284376000920191909152509295949360208101935035915050640100000000811115610a3957600080fd5b820183602082011115610a4b57600080fd5b80359060200191846001830284011164010000000083111715610a6d57600080fd5b91908080601f016020809104026020016040519081016040528093929190818152602001838380828437600092019190915250929550611314945050505050565b348015610aba57600080fd5b506104d161139a565b60025473ffffffffffffffffffffffffffffffffffffffff163314610ae757600080fd5b73ffffffffffffffffffffffffffffffffffffffff166000526006602052565b606080606060006060600760003373ffffffffffffffffffffffffffffffffffffffff1673ffffffffffffffffffffffffffffffffffffffff1681526020019081526020016000206001018054600181600116156101000203166002900480601f016020809104026020016040519081016040528092919081815260200182805460018160011615610100020316600290048015610be65780601f10610bbb57610100808354040283529160200191610be6565b820191906000526020600020905b815481529060010190602001808311610bc957829003601f168201915b5050336000908152600760209081526040918290206002908101805484516001821615610100026000190190911692909204601f81018490048402830184019094528382529697506060969095509350909150830182828015610c8a5780601f10610c5f57610100808354040283529160200191610c8a565b820191906000526020600020905b815481529060010190602001808311610c6d57829003601f168201915b5050336000908152600760209081526040918290206005018054835160026001831615610100026000190190921691909104601f810184900484028201840190945283815296975060609695509350909150830182828015610d2d5780601f10610d0257610100808354040283529160200191610d2d565b820191906000526020600020905b815481529060010190602001808311610d1057829003601f168201915b50969b959a509298503397509395505050505050565b60008181526004602090815260408083203384526009018252909120805460ff191684151517815584519091610d809160018401918701906113a1565b5050505050565b3360009081526006602052604090205460ff161515600114610da857600080fd5b6000838152600460209081526040808320338452600a810183529220805460ff191685151517815583519091610de59160018401918601906113a1565b5060018415151415610e7a57600b8201805460018101825560008281526020902001805473ffffffffffffffffffffffffffffffffffffffff19163317905554600711610e41576001828101805460ff19169091179055610e75565b6040805133815290517faec2ccae8681fd01ad220ecb7e9b5f7d485b1cc3cc01599acb1578016b30a6bd9181900360200190a15b610d80565b600c8201805460018101825560008281526020902001805473ffffffffffffffffffffffffffffffffffffffff19163317905554600711610ecb5760018201805461ff001916610100179055610d80565b6040805133815290517faec2ccae8681fd01ad220ecb7e9b5f7d485b1cc3cc01599acb1578016b30a6bd9181900360200190a15050505050565b6005602090815260009182526040918290208054600180830180548651600261010094831615949094026000190190911692909204601f810186900486028301860190965285825273ffffffffffffffffffffffffffffffffffffffff909216949293909290830182828015610fbc5780601f10610f9157610100808354040283529160200191610fbc565b820191906000526020600020905b815481529060010190602001808311610f9f57829003601f168201915b5050505050908060020154905083565b60015481565b60005473ffffffffffffffffffffffffffffffffffffffff1681565b6000818152600460209081526040918290206002908101805484516001821615610100026000190190911692909204601f81018490048402830184019094528382526060938493849384939092909183018282801561108e5780601f106110635761010080835404028352916020019161108e565b820191906000526020600020905b81548152906001019060200180831161107157829003601f168201915b5050506000888152600460209081526040918290206003018054835160026001831615610100026000190190921691909104601f81018490048402820184019094528381529596506060959450925083018282801561112e5780601f106111035761010080835404028352916020019161112e565b820191906000526020600020905b81548152906001019060200180831161111157829003601f168201915b5050506000898152600460208181526040928390209091018054835160026001831615610100026000190190921691909104601f8101849004840282018401909452838152959650606095945092508301828280156111ce5780601f106111a3576101008083540402835291602001916111ce565b820191906000526020600020905b8154815290600101906020018083116111b157829003601f168201915b50969b959a50929850939650505050505050565b600081815260046020908152604080832033808552600890910183529220805473ffffffffffffffffffffffffffffffffffffffff191690921782558451611232916001840191908701906113a1565b50805492151574010000000000000000000000000000000000000000027fffffffffffffffffffffff00ffffffffffffffffffffffffffffffffffffffff909316929092179091555050565b600180548082019091556000818152600460209081526040822091825586516112af916002840191908901906113a1565b5084516112c590600383019060208801906113a1565b5083516112db90600483019060208701906113a1565b50600581019290925550600601805473ffffffffffffffffffffffffffffffffffffffff191633179055505050565b6001805481019055565b336000908152600760209081526040909120805460ff19166001908117825585516113469392909101918601906113a1565b50336000908152600760209081526040909120835161136d926002909201918501906113a1565b503360009081526007602090815260409091208251611394926005909201918401906113a1565b50505050565b6001545b90565b828054600181600116156101000203166002900490600052602060002090601f016020900481019282601f106113e257805160ff191683800117855561140f565b8280016001018555821561140f579182015b8281111561140f5782518255916020019190600101906113f4565b5061141b92915061141f565b5090565b61139e91905b8082111561141b576000815560010161142556fea165627a7a7230582069a0ae841e379c0e43418cb767982fddb395164aa8f0e4c468280029a44c45d60029",
  "source": "pragma solidity ^0.5.0;\n\n//import \"./SafeMath.sol\";\n\n/// todo import safemath from node modules\n\n// Only when an incident is verified is rep released\n\ncontract Incidents {\n//    using SafeMath for uint256;\n    address public owner;\n    uint256 public incidentsAmount;\n\n    struct Profile {\n        bool status;\n        string name;\n        string description;\n        uint256 rank;\n        uint256[] proposals;\n        string location;\n        // ipfs hash for profile pic\n        userRep uRep;\n        uint256 rep;\n        // maybe mappings ?\n        mapping(address => bool) friends;\n        //      users that gave rep to the user\n        mapping(address => bool) leftRep;\n        //      users the user gave rep to\n        mapping(address => bool) gaveRep;\n// this is the percentage of all payments made on time and missed\n        uint payRate;\n    }\n\n    struct userRep {\n        uint256 totalRep;\n        uint256 repToGive;\n        //      users that gave rep to the user\n        rep[] repsLeft;\n        mapping(address => bool) leftRep;\n    }\n\n    struct rep {\n        //      the address of the user that left rep\n        address user;\n        string message;\n        uint256 amount;\n    }\n    //-----------------------------------------------------------------------------------------------------------\n    //-----------------------------------------------------------------------------------------------------------\n\n    struct incidentReport {\n        uint256 incidentID;\n        bool verified;\n        bool fake;\n        string description;\n        //       longitude, latitude\n        string lng;\n        string lat;\n        //       time and date the beacn was sent\n        uint256 time;\n        address beaconSender;\n        address[] responders;\n        //       reportID\n        mapping(address => witnessReport) wReports;\n        //       set as uint so multiple evidence can be submitted\n        //  ipfsHash\n        mapping(address => evidence) evi;\n        mapping(address => verification) verifications;\n        //       first array to get to 5 wins and verifies\n        //       list of verifiers that passed the incident\n        address[] veriPass;\n        //       list of verifiers that failed the incident\n        address[] veriFail;\n        bool repPaid;\n    }\n\n    struct witnessReport {\n        //        Caution users that all info is public\n        address witnessReportID;\n        bool willTestify;\n        //        ???\n        string description;\n    }\n\n    struct evidence {\n        //        true if its an image false if its a video link\n        bool image;\n        //        ipfs hash or video link\n        string evidence;\n    }\n\n    struct verification {\n        //         the verifiers vote on wether the incident was real or not\n        bool verdict;\n        string description;\n    }\n\n    address AndyChris;\n    incidentReport[] incidentArray;\n    mapping(uint256 => incidentReport) incidents;\n    mapping(address => rep) public usersLeftRepTo;\n    mapping(address => bool) verifiers;\n    mapping(address => Profile) profiles;\n\n    event incidentReported(uint256 incidentID, string location);\n    event incidentVerified(uint256 incidentID);\n    event voted(address);\n    event promoted(address);\n\n    constructor () public {\n        AndyChris = 0x64eCe92B79b096c2771131870C6b7EBAE8C2bd7E;\n    }\n\n    modifier isAndyChris() {\n        require(msg.sender == AndyChris);\n        _;\n    }\n\n    function createVerifier(address _verifier) external isAndyChris {\n        verifiers[_verifier];\n    }\n\n    function addEvidence(string memory _evidence, bool _image, uint256 _incidentID) public payable {\n        //       rand is either a random integer generated offchain or index and use a\n        //       counter ??\n        evidence storage e = incidents[_incidentID].evi[msg.sender];\n        e.image = _image;\n        e.evidence = _evidence;\n    }\n\n    function setBeacon(string memory _description, string memory _longitude,\n                       string memory _latitude, uint256 _time) public payable {\n        //       rand is either a random integer generated offchain or index and use a\n        //       counter ??\n        uint256 incidentID = incidentsAmount++;\n        incidentReport storage i = incidents[incidentID];\n        i.incidentID = 0;\n        i.description = _description;\n        i.lng = _longitude;\n        i.lat = _latitude;\n        i.time = _time;\n        i.beaconSender = msg.sender;\n    }\n\n    function getBeacon(uint256 id) public view returns ( string memory description,\n                                   string memory lng, string memory lat){\n        string memory description = incidents[id].description;\n        string memory lng = incidents[id].lng;\n        string memory lat = incidents[id].lat;\n        return (description, lng, lat);\n    }\n\n    function addAmount() public payable {\n        incidentsAmount++;\n    }\n\n    function getIncidentAmount() public view returns (uint256) {\n        return incidentsAmount;\n    }\n\n    function createWitnessReport( string memory _description, bool _willTestify,\n                                  uint256 _incidentID ) public payable {\n        //       rand is either a random integer generated offchain or index and use a\n        //       counter ??\n        witnessReport storage wp = incidents[_incidentID].wReports[msg.sender];\n        wp.witnessReportID = msg.sender;\n        wp.description = _description;\n        wp.willTestify = _willTestify;\n    }\n\n    //\n    function verifyIncident( uint256 _incidentID, bool _verdict, string memory _description\n                           ) public payable {\n        require(verifiers[msg.sender] == true);\n        incidentReport storage v = incidents[_incidentID];\n        verification storage i = incidents[_incidentID].verifications[msg\n            .sender];\n        i.verdict = _verdict;\n        i.description = _description;\n        ///  first to 7 votes wins!!\n        if (_verdict == true) {\n            v.veriPass.push(msg.sender);\n            if (v.veriPass.length >= 7) {\n                v.verified = true;\n            } else {\n                emit voted(msg.sender);\n            }\n        } else {\n            v.veriFail.push(msg.sender);\n            if (v.veriFail.length >= 7) {\n                v.fake = true;\n            } else {\n                emit voted(msg.sender);\n            }\n        }\n    }\n\n    //------------------------------------------------------------------------------------------------------------\n    //----------------------------------------------------------------------------------------------------------\n\n    function createAccount(string memory _name, string memory _description,\n                           string memory _location) public payable {\n        //       bool status = profiles[msg.sender].status;\n        //      if (status) {revert();}\n        profiles[msg.sender].status = true;\n        profiles[msg.sender].name = _name;\n        profiles[msg.sender].description = _description;\n        profiles[msg.sender].location = _location;\n    }\n\n    function myProfile()public view returns (string memory name, string memory description,\n                                             string memory location, address add){\n        string memory name = profiles[msg.sender].name;\n        string memory description = profiles[msg.sender].description;\n        string memory location = profiles[msg.sender].location;\n        address add = msg.sender;\n        return (name, description, location, add);\n    }\n\n    //    function respond(uint _incidentID)public payable{}\n\n    //----------------------------------------------------------------------------------------------------------\n    //---------------------------------------------------------------------------------------------------------\n    //\n    // RANKS   1) PRIVATE\n    //            only has messaging\n    //         2) CORPORAL\n    //            x2 vote weight\n    //         3) SERGEANT\n    //            x3 vote weight\n    //         4) LIEUTENANT\n    //            x4 vote weight\n    //         5) CAPTAIN\n    //            x5 vote weight\n    //         6) COMMODORE\n    //            x6 vote weight\n    //            rank of COMMODORE is only available by confirmation by ADMIRAL\n    //            COMMODORE can promote or demote by one RANKS\n    //            any user that is LIEUTENANT and lower\n    //         7) ADMIRAL\n    //            x7 vote weight\n    //            ADMIRAL can promote or demote any user by 1 rank\n    //            All users can only be promoted once\n    //            ADMIRAL has full veto over all process of the DAO funds\n    //            to prevent abuse\n/*\n    modifier aboveLevel(uint256 _rank) {\n        require(profiles[msg.sender].rank >= _rank);\n        _;\n    }\n\n    function levelUp(address _user) public payable {\n        profiles[_user].rank = profiles[_user].rank.add(1);\n    }\n\n    function promote(address _user) public payable aboveLevel(6) {\n        if (profiles[msg.sender].rank == 6) {\n            if (profiles[_user].rank <= 4) {\n                levelUp(_user);\n            } else {\n                emit promoted(_user);\n            }\n        } else {\n            if (profiles[_user].rank <= 4) {\n                levelUp(_user);\n            } else {\n                emit promoted(_user);\n            }\n        }\n    }*/\n\n    //   function getThisUser() returns (Profile){\n    //       return profiles[msg.sender];\n    //   function getUsers() public\n}\n\n//   function demote(){\n\n//   }\n\n//  require rank of ADMIRAL 7\n//    function fire(){\n\n//    }\n",
  "sourcePath": "/home/a/Documents/d1/dapp1/Dapp/contracts/Incidents.sol",
  "compiler": {
    "name": "solc",
    "version": "0.5.0+commit.1d4f565a.Emscripten.clang"
  },
  "schemaVersion": "3.0.5",
  "updatedAt": "2021-03-24T20:13:42.174Z",
  "devdoc": {
    "methods": {}
  },
  "userdoc": {
    "methods": {},
    "notice": "todo import safemath from node modules"
  }
}