{
  "contractName": "Message",
  "abi": [
    {
      "constant": true,
      "inputs": [],
      "name": "incidentsAmount",
      "outputs": [
        {
          "name": "",
          "type": "uint256"
        }
      ],
      "payable": false,
      "stateMutability": "view",
      "type": "function",
      "signature": "0x7c713c93"
    },
    {
      "inputs": [],
      "payable": false,
      "stateMutability": "nonpayable",
      "type": "constructor",
      "signature": "constructor"
    },
    {
      "constant": false,
      "inputs": [
        {
          "name": "_msg",
          "type": "string"
        },
        {
          "name": "_sender",
          "type": "address"
        },
        {
          "name": "_hash",
          "type": "string"
        }
      ],
      "name": "sendMessage",
      "outputs": [],
      "payable": false,
      "stateMutability": "nonpayable",
      "type": "function",
      "signature": "0x13a276ea"
    },
    {
      "constant": false,
      "inputs": [
        {
          "name": "_msg",
          "type": "string"
        },
        {
          "name": "_sender",
          "type": "address"
        },
        {
          "name": "_hash",
          "type": "string"
        }
      ],
      "name": "sendPinnedMessage",
      "outputs": [],
      "payable": false,
      "stateMutability": "nonpayable",
      "type": "function",
      "signature": "0xeffab1ff"
    },
    {
      "constant": true,
      "inputs": [
        {
          "name": "_index",
          "type": "uint256"
        }
      ],
      "name": "getMessage",
      "outputs": [
        {
          "name": "",
          "type": "address"
        },
        {
          "name": "",
          "type": "string"
        },
        {
          "name": "",
          "type": "uint256"
        },
        {
          "name": "",
          "type": "string"
        }
      ],
      "payable": false,
      "stateMutability": "view",
      "type": "function",
      "signature": "0x86f79edb"
    },
    {
      "constant": false,
      "inputs": [
        {
          "name": "dir",
          "type": "uint256"
        },
        {
          "name": "trustee",
          "type": "address"
        }
      ],
      "name": "startGroupMessage",
      "outputs": [],
      "payable": false,
      "stateMutability": "nonpayable",
      "type": "function",
      "signature": "0xbb9ffe59"
    },
    {
      "constant": false,
      "inputs": [
        {
          "name": "chat",
          "type": "uint256"
        },
        {
          "name": "mesg",
          "type": "string"
        }
      ],
      "name": "sendGroupMessage",
      "outputs": [],
      "payable": false,
      "stateMutability": "nonpayable",
      "type": "function",
      "signature": "0xc999a7c7"
    },
    {
      "constant": false,
      "inputs": [
        {
          "name": "chat",
          "type": "uint256"
        },
        {
          "name": "member",
          "type": "address"
        }
      ],
      "name": "addMemberToGroupChat",
      "outputs": [],
      "payable": false,
      "stateMutability": "nonpayable",
      "type": "function",
      "signature": "0x3bdfad22"
    },
    {
      "constant": false,
      "inputs": [
        {
          "name": "chat",
          "type": "uint256"
        },
        {
          "name": "member",
          "type": "address"
        }
      ],
      "name": "removeMember",
      "outputs": [],
      "payable": false,
      "stateMutability": "nonpayable",
      "type": "function",
      "signature": "0x6be7658b"
    },
    {
      "constant": true,
      "inputs": [],
      "name": "getMessageAmount",
      "outputs": [
        {
          "name": "",
          "type": "uint256"
        }
      ],
      "payable": false,
      "stateMutability": "view",
      "type": "function",
      "signature": "0xfe37d6f2"
    }
  ],
  "bytecode": "0x608060405234801561001057600080fd5b50600680547364ece92b79b096c2771131870c6b7ebae8c2bd7e600160a060020a03199182168117909255600780549091169091179055610ce9806100566000396000f3fe6080604052600436106100985763ffffffff7c010000000000000000000000000000000000000000000000000000000060003504166313a276ea811461009d5780633bdfad22146101ea5780636be7658b146102235780637c713c931461025c57806386f79edb14610283578063bb9ffe59146103ab578063c999a7c7146103e4578063effab1ff1461049e578063fe37d6f2146105e9575b600080fd5b3480156100a957600080fd5b506101e8600480360360608110156100c057600080fd5b8101906020810181356401000000008111156100db57600080fd5b8201836020820111156100ed57600080fd5b8035906020019184600183028401116401000000008311171561010f57600080fd5b91908080601f0160208091040260200160405190810160405280939291908181526020018383808284376000920191909152509295600160a060020a0385351695909490935060408101925060200135905064010000000081111561017357600080fd5b82018360208201111561018557600080fd5b803590602001918460018302840111640100000000831117156101a757600080fd5b91908080601f0160208091040260200160405190810160405280939291908181526020018383808284376000920191909152509295506105fe945050505050565b005b3480156101f657600080fd5b506101e86004803603604081101561020d57600080fd5b5080359060200135600160a060020a0316610608565b34801561022f57600080fd5b506101e86004803603604081101561024657600080fd5b5080359060200135600160a060020a0316610693565b34801561026857600080fd5b506102716106de565b60408051918252519081900360200190f35b34801561028f57600080fd5b506102ad600480360360208110156102a657600080fd5b50356106e4565b6040518085600160a060020a0316600160a060020a031681526020018060200184815260200180602001838103835286818151815260200191508051906020019080838360005b8381101561030c5781810151838201526020016102f4565b50505050905090810190601f1680156103395780820380516001836020036101000a031916815260200191505b50838103825284518152845160209182019186019080838360005b8381101561036c578181015183820152602001610354565b50505050905090810190601f1680156103995780820380516001836020036101000a031916815260200191505b50965050505050505060405180910390f35b3480156103b757600080fd5b506101e8600480360360408110156103ce57600080fd5b5080359060200135600160a060020a03166108a2565b3480156103f057600080fd5b506101e86004803603604081101561040757600080fd5b8135919081019060408101602082013564010000000081111561042957600080fd5b82018360208201111561043b57600080fd5b8035906020019184600183028401116401000000008311171561045d57600080fd5b91908080601f016020809104026020016040519081016040528093929190818152602001838380828437600092019190915250929550610902945050505050565b3480156104aa57600080fd5b506101e8600480360360608110156104c157600080fd5b8101906020810181356401000000008111156104dc57600080fd5b8201836020820111156104ee57600080fd5b8035906020019184600183028401116401000000008311171561051057600080fd5b91908080601f0160208091040260200160405190810160405280939291908181526020018383808284376000920191909152509295600160a060020a0385351695909490935060408101925060200135905064010000000081111561057457600080fd5b82018360208201111561058657600080fd5b803590602001918460018302840111640100000000831117156105a857600080fd5b91908080601f016020809104026020016040519081016040528093929190818152602001838380828437600092019190915250929550610a85945050505050565b3480156105f557600080fd5b50610271610aa6565b6002805460009190fe5b600754600160a060020a0316331461061f57600080fd5b6000600460055481548110151561063257fe5b90600052602060002090600202019050600160048481548110151561065357fe5b60009182526020808320600160a060020a03909616835260016002909202909501019093526040909220805492151560ff19909316929092179091555050565b600754600160a060020a031633146106aa57600080fd5b600060046005548154811015156106bd57fe5b90600052602060002090600202019050600060048481548110151561065357fe5b60015481565b6000805460609082908290600160a060020a0316331461070357600080fd5b61070b610ba0565b600280548790811061071957fe5b60009182526020918290206040805160808101825260049093029091018054600160a060020a03168352600180820180548451601f600260001995841615610100029590950190921693909304908101879004870283018701909452838252939491938583019391929091908301828280156107d65780601f106107ab576101008083540402835291602001916107d6565b820191906000526020600020905b8154815290600101906020018083116107b957829003601f168201915b505050918352505060028281015460208084019190915260038401805460408051601f600019610100600186161502019093169590950491820184900484028501840181528185529094019390918301828280156108755780601f1061084a57610100808354040283529160200191610875565b820191906000526020600020905b81548152906001019060200180831161085857829003601f168201915b505050919092525050815160208301516040840151606090940151919a9099509297509550909350505050565b600754600160a060020a031633146108b957600080fd5b6005805460010190819055600480546000929081106108d457fe5b600091825260208083203384526001600290930201820190526040909120805460ff19169091179055505050565b600480548390811061091057fe5b6000918252602080832033845260016002909302018201905260409091205460ff1615151461093e57600080fd5b600060048381548110151561094f57fe5b906000526020600020906002020160000160048481548110151561096f57fe5b6000918252602090912060029091020180549061098f9060018301610bd2565b8154811061099957fe5b90600052602060002090600402019050818160010190805190602001906109c1929190610aad565b5060048054849081106109d057fe5b6000918252602080832060029283020180546001818101808455928652929094208554600490950201805473ffffffffffffffffffffffffffffffffffffffff1916600160a060020a039095169490941784558185018054919486949093610a4a9385820193929181161561010002600019011604610b2b565b506002820154816002015560038201816003019080546001816001161561010002031660029004610a7c929190610b2b565b50505050505050565b600654600160a060020a03163314610a9c57600080fd5b6003805460009190fe5b6001545b90565b828054600181600116156101000203166002900490600052602060002090601f016020900481019282601f10610aee57805160ff1916838001178555610b1b565b82800160010185558215610b1b579182015b82811115610b1b578251825591602001919060010190610b00565b50610b27929150610c03565b5090565b828054600181600116156101000203166002900490600052602060002090601f016020900481019282601f10610b645780548555610b1b565b82800160010185558215610b1b57600052602060002091601f016020900482015b82811115610b1b578254825591600101919060010190610b85565b6080604051908101604052806000600160a060020a031681526020016060815260200160008152602001606081525090565b815481835581811115610bfe57600402816004028360005260206000209182019101610bfe9190610c1d565b505050565b610aaa91905b80821115610b275760008155600101610c09565b610aaa91905b80821115610b2757805473ffffffffffffffffffffffffffffffffffffffff191681556000610c556001830182610c76565b6002820160009055600382016000610c6d9190610c76565b50600401610c23565b50805460018160011615610100020316600290046000825580601f10610c9c5750610cba565b601f016020900490600052602060002090810190610cba9190610c03565b5056fea165627a7a72305820dbb332f32a3c37e6ed9cea4791313754589f3d8e2d5a68b3854d00d7b7d043990029",
  "source": "pragma solidity 0.5.0;\nimport \"./AccessRegistry.sol\";\nimport  {Owned} from \"./Owned.sol\";\n\n\n\n//                    ,\n//                   dM\n//                   MMr\n//                  4MMML                  .\n//                  MMMMM.                xf\n//  .              \"M6MMM               .MM-\n//   Mh..          +MM5MMM            .MMMM\n//   .MMM.         .MMMMML.          MMMMMh          \n//    )MMMh.        MM5MMM         MMMMMMM                 ECCLESIASTES 3:8 KJV\n//     3MMMMx.     'MMM3MMf      xnMMMMMM\" \n//     '*MMMMM      MMMMMM.     nMMMMMMP\"\n//       *MMMMMx    \"MMM5M\\    .MMMMMMM=\n//        *MMMMMh   \"MMMMM\"   JMMMMMMP\n//          MMMMMM   GMMMM.  dMMMMMM            .\n//           MMMMMM  \"MMMM  .MMMMM(        .nnMP\"\n//..          *MMMMx  MMM\"  dMMMM\"    .nnMMMMM*\n// \"MMn...     'MMMMr 'MM   MMM\"   .nMMMMMMM*\"\n//  \"4MMMMnn..   *MMM  MM  MMP\"  .dMMMMMMM\"\"\n//    ^MMMMMMMMx.  *ML \"M .M*  .MMMMMM**\"\n//       *PMMMMMMhn. *x > M  .MMMM**\"\"\n//          \"\"**MMMMhx/.h/ .=*\"\n//                   .3P\"%....\n//                 nP\"     \"*MMnx\n\ncontract Message {\n\n    struct message {\n    \taddress sender;\n        string message;\n        uint time;\n// ipfs hash\n        string image;\n    }\n\n    struct GroupChat{\n    \tmessage[] messages;\n    \tmapping(address => bool) members;\n    }\n\n    address payable owner;\n    uint public incidentsAmount;\n    message[] messages;\n    message[] pinnedMessages;\n    GroupChat[] groupChats;\n    uint GCcounter;\n    address AndyChris;\n    address AccessRegistry;\n\n    constructor () public {\n        AndyChris = 0x64eCe92B79b096c2771131870C6b7EBAE8C2bd7E;\n        AccessRegistry = 0x64eCe92B79b096c2771131870C6b7EBAE8C2bd7E;\n    }\n\n/*\n    modifier isInGroupChat(uint cha) {\n        require(GroupChat[cha].members[msg.sender] == true);\n        _;\n    }\n*/\n\n    modifier isAndyChris() {\n        require(msg.sender == AndyChris);\n        _;\n    }\n\n    modifier isAccessRegistry() {\n        require(msg.sender == AccessRegistry);\n        _;\n    }\n\n    modifier onlyOwner {\n        require(msg.sender == owner);\n        _;\n    }\n\n    function sendMessage(string memory _msg, address _sender, string memory _hash) public{\n        message storage mesg = messages[messages.length];\n        mesg.sender = msg.sender;\n        mesg.message =  _msg;\n        mesg.time = block.timestamp;\n        mesg.image = _hash;\n        messages.push(mesg);\n    }\n\n    function sendPinnedMessage(string memory _msg, address _sender, string memory _hash) public \n                               isAndyChris(){\n        message storage mesg = pinnedMessages[pinnedMessages.length];\n        mesg.sender = msg.sender;\n        mesg.message =  _msg;\n        mesg.time = block.timestamp;\n        mesg.image = _hash;\n        messages.push(mesg);\n    }\n    function getMessage(uint _index) onlyOwner() public view returns(address, string memory, uint,\n                        string memory ){\n    \tmessage memory mesg = messages[_index];\n        address sender = mesg.sender;\n        string memory messag = mesg.message;\n        uint time = mesg.time;\n        string memory image = mesg.image;\n    \treturn (sender, messag, time, image);\n    }\n\n    function startGroupMessage(uint dir, address trustee) public  isAccessRegistry(){\n        GCcounter++;\n        GroupChat storage gChat = groupChats[GCcounter];\n        gChat.members[msg.sender] = true;\n    }\n\n    function sendGroupMessage(uint chat, string memory mesg) public {\n        require(groupChats[chat].members[msg.sender] == true);\n        message storage mes = groupChats[chat].messages[groupChats[chat].messages.length++];\n        mes.message = mesg;\n        groupChats[chat].messages.push(mes);\n    }\n\n    function addMemberToGroupChat(uint chat, address member) public isAccessRegistry(){\n        GroupChat storage gChat = groupChats[GCcounter];\n        groupChats[chat].members[member] = true;\n    }\n\n    function removeMember(uint chat, address member) public isAccessRegistry(){\n        GroupChat storage gChat = groupChats[GCcounter];\n        groupChats[chat].members[member] = false;\n    }\n\n    function getMessageAmount() public view returns (uint256) {\n        return incidentsAmount;\n    }\n\n}",
  "sourcePath": "/home/a/Documents/d1/dapp1/Dapp/contracts/Message.sol",
  "compiler": {
    "name": "solc",
    "version": "0.5.0+commit.1d4f565a.Emscripten.clang"
  },
  "schemaVersion": "3.0.5",
  "updatedAt": "2021-03-24T20:13:42.192Z",
  "devdoc": {
    "methods": {}
  },
  "userdoc": {
    "methods": {}
  }
}