{
  "contractName": "SocialNet",
  "abi": [
    {
      "constant": true,
      "inputs": [],
      "name": "owner",
      "outputs": [
        {
          "name": "",
          "type": "address"
        }
      ],
      "payable": false,
      "stateMutability": "view",
      "type": "function",
      "signature": "0x8da5cb5b"
    },
    {
      "constant": true,
      "inputs": [
        {
          "name": "",
          "type": "address"
        }
      ],
      "name": "profiles",
      "outputs": [
        {
          "name": "add",
          "type": "address"
        },
        {
          "name": "ID",
          "type": "uint256"
        },
        {
          "name": "location",
          "type": "string"
        },
        {
          "name": "name",
          "type": "string"
        },
        {
          "name": "description",
          "type": "string"
        },
        {
          "name": "status",
          "type": "bool"
        },
        {
          "name": "postsCounter",
          "type": "uint256"
        },
        {
          "name": "avatar",
          "type": "string"
        },
        {
          "name": "mod",
          "type": "bool"
        },
        {
          "name": "sessionID",
          "type": "string"
        },
        {
          "name": "sessionQR",
          "type": "string"
        }
      ],
      "payable": false,
      "stateMutability": "view",
      "type": "function",
      "signature": "0xbbe15627"
    },
    {
      "constant": true,
      "inputs": [
        {
          "name": "",
          "type": "address"
        }
      ],
      "name": "modApps",
      "outputs": [
        {
          "name": "description",
          "type": "string"
        },
        {
          "name": "profile",
          "type": "address"
        },
        {
          "name": "upVotes",
          "type": "uint256"
        },
        {
          "name": "downVotes",
          "type": "uint256"
        }
      ],
      "payable": false,
      "stateMutability": "view",
      "type": "function",
      "signature": "0xc8dc6326"
    },
    {
      "inputs": [],
      "payable": false,
      "stateMutability": "nonpayable",
      "type": "constructor",
      "signature": "constructor"
    },
    {
      "anonymous": false,
      "inputs": [
        {
          "indexed": false,
          "name": "id",
          "type": "uint256"
        },
        {
          "indexed": false,
          "name": "content",
          "type": "string"
        },
        {
          "indexed": false,
          "name": "tipAmount",
          "type": "uint256"
        },
        {
          "indexed": false,
          "name": "author",
          "type": "address"
        }
      ],
      "name": "PostCreated",
      "type": "event",
      "signature": "0xc66336337a24e513f909b3b25119854dba8385d51307dbc7d31d1b2805e19c7e"
    },
    {
      "anonymous": false,
      "inputs": [
        {
          "indexed": false,
          "name": "id",
          "type": "uint256"
        },
        {
          "indexed": false,
          "name": "content",
          "type": "string"
        },
        {
          "indexed": false,
          "name": "tipAmount",
          "type": "uint256"
        },
        {
          "indexed": false,
          "name": "author",
          "type": "address"
        }
      ],
      "name": "PostTipped",
      "type": "event",
      "signature": "0x20988fe475351e75813672abada1dddb7ac67cbbeb81e61e1160b8329d8cdf1c"
    },
    {
      "constant": true,
      "inputs": [],
      "name": "getPostsAmount",
      "outputs": [
        {
          "name": "",
          "type": "uint256"
        }
      ],
      "payable": false,
      "stateMutability": "view",
      "type": "function",
      "signature": "0x777928ab"
    },
    {
      "constant": true,
      "inputs": [],
      "name": "getProfilesAmount",
      "outputs": [
        {
          "name": "",
          "type": "uint256"
        }
      ],
      "payable": false,
      "stateMutability": "view",
      "type": "function",
      "signature": "0xac76b06b"
    },
    {
      "constant": true,
      "inputs": [],
      "name": "getMyPosts",
      "outputs": [
        {
          "name": "pos",
          "type": "uint256[]"
        }
      ],
      "payable": false,
      "stateMutability": "view",
      "type": "function",
      "signature": "0x5950eb5b"
    },
    {
      "constant": true,
      "inputs": [
        {
          "name": "user",
          "type": "address"
        }
      ],
      "name": "getUsersPosts",
      "outputs": [
        {
          "name": "pos",
          "type": "uint256[]"
        }
      ],
      "payable": false,
      "stateMutability": "view",
      "type": "function",
      "signature": "0x24a4bedc"
    },
    {
      "constant": true,
      "inputs": [],
      "name": "getMyPostno",
      "outputs": [
        {
          "name": "posNo",
          "type": "uint256"
        }
      ],
      "payable": false,
      "stateMutability": "view",
      "type": "function",
      "signature": "0xa5dc8f77"
    },
    {
      "constant": false,
      "inputs": [
        {
          "name": "xmr",
          "type": "string"
        }
      ],
      "name": "setXmrAddress",
      "outputs": [],
      "payable": false,
      "stateMutability": "nonpayable",
      "type": "function",
      "signature": "0xa8010a65"
    },
    {
      "constant": false,
      "inputs": [
        {
          "name": "btc",
          "type": "string"
        }
      ],
      "name": "setbtcAddress",
      "outputs": [],
      "payable": false,
      "stateMutability": "nonpayable",
      "type": "function",
      "signature": "0x2ebe3bc4"
    },
    {
      "constant": false,
      "inputs": [
        {
          "name": "ipfs",
          "type": "string"
        }
      ],
      "name": "setIPFSAddress",
      "outputs": [],
      "payable": false,
      "stateMutability": "nonpayable",
      "type": "function",
      "signature": "0x4cc8e6c9"
    },
    {
      "constant": true,
      "inputs": [],
      "name": "getHomeData",
      "outputs": [
        {
          "name": "xmr",
          "type": "string"
        },
        {
          "name": "btc",
          "type": "string"
        },
        {
          "name": "ipfs",
          "type": "string"
        }
      ],
      "payable": false,
      "stateMutability": "view",
      "type": "function",
      "signature": "0x3958f20d"
    },
    {
      "constant": true,
      "inputs": [
        {
          "name": "id",
          "type": "uint256"
        }
      ],
      "name": "getPost",
      "outputs": [
        {
          "name": "publisher",
          "type": "address"
        },
        {
          "name": "postsCounter",
          "type": "uint256"
        },
        {
          "name": "message",
          "type": "string"
        },
        {
          "name": "image",
          "type": "string"
        },
        {
          "name": "replies",
          "type": "string[]"
        },
        {
          "name": "likes",
          "type": "uint256"
        }
      ],
      "payable": false,
      "stateMutability": "view",
      "type": "function",
      "signature": "0x40731c24"
    },
    {
      "constant": false,
      "inputs": [
        {
          "name": "id",
          "type": "uint256"
        },
        {
          "name": "reply",
          "type": "string"
        }
      ],
      "name": "reply",
      "outputs": [],
      "payable": true,
      "stateMutability": "payable",
      "type": "function",
      "signature": "0xd94c783a"
    },
    {
      "constant": false,
      "inputs": [
        {
          "name": "_location",
          "type": "string"
        },
        {
          "name": "_name",
          "type": "string"
        },
        {
          "name": "_description",
          "type": "string"
        },
        {
          "name": "_avatar",
          "type": "string"
        }
      ],
      "name": "createAccount",
      "outputs": [],
      "payable": true,
      "stateMutability": "payable",
      "type": "function",
      "signature": "0x4ae06098"
    },
    {
      "constant": false,
      "inputs": [
        {
          "name": "_name",
          "type": "string"
        },
        {
          "name": "_description",
          "type": "string"
        }
      ],
      "name": "createPage",
      "outputs": [],
      "payable": true,
      "stateMutability": "payable",
      "type": "function",
      "signature": "0x3a0f7837"
    },
    {
      "constant": true,
      "inputs": [
        {
          "name": "id",
          "type": "uint256"
        }
      ],
      "name": "getPage",
      "outputs": [
        {
          "name": "name",
          "type": "string"
        },
        {
          "name": "description",
          "type": "string"
        },
        {
          "name": "creator",
          "type": "address"
        },
        {
          "name": "pos",
          "type": "uint256[]"
        }
      ],
      "payable": false,
      "stateMutability": "view",
      "type": "function",
      "signature": "0x137a3c96"
    },
    {
      "constant": true,
      "inputs": [
        {
          "name": "member",
          "type": "uint256"
        }
      ],
      "name": "getAccountCard",
      "outputs": [
        {
          "name": "name",
          "type": "string"
        },
        {
          "name": "followers",
          "type": "uint256"
        },
        {
          "name": "pCount",
          "type": "uint256"
        },
        {
          "name": "add",
          "type": "address"
        }
      ],
      "payable": false,
      "stateMutability": "view",
      "type": "function",
      "signature": "0x9481a0fb"
    },
    {
      "constant": false,
      "inputs": [
        {
          "name": "_description",
          "type": "string"
        }
      ],
      "name": "applyForModerator",
      "outputs": [],
      "payable": false,
      "stateMutability": "nonpayable",
      "type": "function",
      "signature": "0x5c53583b"
    },
    {
      "constant": false,
      "inputs": [
        {
          "name": "user",
          "type": "address"
        },
        {
          "name": "vote",
          "type": "bool"
        }
      ],
      "name": "voteForModerator",
      "outputs": [],
      "payable": false,
      "stateMutability": "nonpayable",
      "type": "function",
      "signature": "0x5f342aea"
    },
    {
      "constant": false,
      "inputs": [
        {
          "name": "profile",
          "type": "address"
        },
        {
          "name": "index",
          "type": "uint256"
        },
        {
          "name": "reason",
          "type": "uint256"
        }
      ],
      "name": "flag",
      "outputs": [],
      "payable": false,
      "stateMutability": "nonpayable",
      "type": "function",
      "signature": "0x8645d3da"
    },
    {
      "constant": true,
      "inputs": [],
      "name": "getMyFriends",
      "outputs": [
        {
          "name": "friends",
          "type": "address[]"
        }
      ],
      "payable": false,
      "stateMutability": "view",
      "type": "function",
      "signature": "0xbe34ebbf"
    },
    {
      "constant": true,
      "inputs": [],
      "name": "getMyFriendRequests",
      "outputs": [
        {
          "name": "friendsR",
          "type": "address[]"
        }
      ],
      "payable": false,
      "stateMutability": "view",
      "type": "function",
      "signature": "0x35fe91a4"
    },
    {
      "constant": false,
      "inputs": [
        {
          "name": "_friendsAccount",
          "type": "address"
        }
      ],
      "name": "addFriend",
      "outputs": [],
      "payable": false,
      "stateMutability": "nonpayable",
      "type": "function",
      "signature": "0xd7a1cfe1"
    },
    {
      "constant": false,
      "inputs": [
        {
          "name": "addr",
          "type": "address"
        }
      ],
      "name": "approveRequest",
      "outputs": [],
      "payable": false,
      "stateMutability": "nonpayable",
      "type": "function",
      "signature": "0x061dff9a"
    },
    {
      "constant": false,
      "inputs": [
        {
          "name": "_friendsAccount",
          "type": "address"
        }
      ],
      "name": "blockGuy",
      "outputs": [],
      "payable": false,
      "stateMutability": "nonpayable",
      "type": "function",
      "signature": "0x7d46d735"
    },
    {
      "constant": false,
      "inputs": [
        {
          "name": "_friendsAccount",
          "type": "address"
        },
        {
          "name": "_message",
          "type": "string"
        }
      ],
      "name": "postInFriendsWall",
      "outputs": [],
      "payable": true,
      "stateMutability": "payable",
      "type": "function",
      "signature": "0x5c2d4184"
    },
    {
      "constant": false,
      "inputs": [
        {
          "name": "_friendsAccount",
          "type": "address"
        },
        {
          "name": "_message",
          "type": "string"
        },
        {
          "name": "index",
          "type": "uint256"
        }
      ],
      "name": "removeFriendWallPost",
      "outputs": [],
      "payable": false,
      "stateMutability": "nonpayable",
      "type": "function",
      "signature": "0x096968da"
    },
    {
      "constant": false,
      "inputs": [
        {
          "name": "_message",
          "type": "string"
        },
        {
          "name": "image",
          "type": "string"
        }
      ],
      "name": "post",
      "outputs": [],
      "payable": false,
      "stateMutability": "nonpayable",
      "type": "function",
      "signature": "0x0ae1b13d"
    },
    {
      "constant": false,
      "inputs": [
        {
          "name": "_message",
          "type": "string"
        },
        {
          "name": "image",
          "type": "string"
        },
        {
          "name": "ID",
          "type": "uint256"
        }
      ],
      "name": "postInPage",
      "outputs": [],
      "payable": false,
      "stateMutability": "nonpayable",
      "type": "function",
      "signature": "0x2844d6e2"
    },
    {
      "constant": false,
      "inputs": [
        {
          "name": "index",
          "type": "uint256"
        }
      ],
      "name": "removePost",
      "outputs": [],
      "payable": false,
      "stateMutability": "nonpayable",
      "type": "function",
      "signature": "0x1721ed48"
    },
    {
      "constant": false,
      "inputs": [
        {
          "name": "ID",
          "type": "uint256"
        },
        {
          "name": "index",
          "type": "uint256"
        }
      ],
      "name": "removePostInPage",
      "outputs": [],
      "payable": false,
      "stateMutability": "nonpayable",
      "type": "function",
      "signature": "0x66d2f2fd"
    },
    {
      "constant": false,
      "inputs": [
        {
          "name": "index",
          "type": "uint256"
        }
      ],
      "name": "removePostMod",
      "outputs": [],
      "payable": false,
      "stateMutability": "nonpayable",
      "type": "function",
      "signature": "0x313f5164"
    },
    {
      "constant": false,
      "inputs": [
        {
          "name": "numberPost",
          "type": "uint256"
        }
      ],
      "name": "likePost",
      "outputs": [],
      "payable": false,
      "stateMutability": "nonpayable",
      "type": "function",
      "signature": "0x725009d3"
    },
    {
      "constant": false,
      "inputs": [
        {
          "name": "numberPost",
          "type": "uint256"
        }
      ],
      "name": "dislikePost",
      "outputs": [],
      "payable": false,
      "stateMutability": "nonpayable",
      "type": "function",
      "signature": "0x732fa7c7"
    },
    {
      "constant": false,
      "inputs": [
        {
          "name": "mod",
          "type": "address"
        }
      ],
      "name": "createMod",
      "outputs": [],
      "payable": false,
      "stateMutability": "nonpayable",
      "type": "function",
      "signature": "0x90f42b38"
    },
    {
      "constant": false,
      "inputs": [
        {
          "name": "ID",
          "type": "uint256"
        },
        {
          "name": "mod",
          "type": "address"
        }
      ],
      "name": "createPageMod",
      "outputs": [],
      "payable": false,
      "stateMutability": "nonpayable",
      "type": "function",
      "signature": "0x9b099a59"
    },
    {
      "constant": false,
      "inputs": [
        {
          "name": "mod",
          "type": "address"
        }
      ],
      "name": "removeMod",
      "outputs": [],
      "payable": false,
      "stateMutability": "nonpayable",
      "type": "function",
      "signature": "0x4637de3c"
    },
    {
      "constant": false,
      "inputs": [
        {
          "name": "ID",
          "type": "uint256"
        },
        {
          "name": "mod",
          "type": "address"
        }
      ],
      "name": "removePageMod",
      "outputs": [],
      "payable": false,
      "stateMutability": "nonpayable",
      "type": "function",
      "signature": "0x6217e645"
    },
    {
      "constant": true,
      "inputs": [
        {
          "name": "add",
          "type": "address"
        }
      ],
      "name": "getSession",
      "outputs": [
        {
          "name": "ID",
          "type": "string"
        },
        {
          "name": "QR",
          "type": "string"
        }
      ],
      "payable": false,
      "stateMutability": "view",
      "type": "function",
      "signature": "0x8c8e13b9"
    },
    {
      "constant": true,
      "inputs": [],
      "name": "getMySession",
      "outputs": [
        {
          "name": "ID",
          "type": "string"
        },
        {
          "name": "QR",
          "type": "string"
        }
      ],
      "payable": false,
      "stateMutability": "view",
      "type": "function",
      "signature": "0x4896a8a9"
    },
    {
      "constant": false,
      "inputs": [
        {
          "name": "ID",
          "type": "string"
        },
        {
          "name": "QR",
          "type": "string"
        }
      ],
      "name": "setSession",
      "outputs": [],
      "payable": false,
      "stateMutability": "nonpayable",
      "type": "function",
      "signature": "0x6146fe6f"
    }
  ],
  "bytecode": "0x60806040523480156200001157600080fd5b5060058054600160a060020a0319163317905560408051606081018252602a80825260008051602062003104833981519152602083019081527f44336636636431364441000000000000000000000000000000000000000000009290930191909152620000819160079162000144565b5060408051606081018252602a80825260008051602062003104833981519152602083019081527f44336636636431364441000000000000000000000000000000000000000000009290930191909152620000df9160089162000144565b5060408051606081018252602a80825260008051602062003104833981519152602083019081527f443366366364313644410000000000000000000000000000000000000000000092909301919091526200013d9160099162000144565b50620001e9565b828054600181600116156101000203166002900490600052602060002090601f016020900481019282601f106200018757805160ff1916838001178555620001b7565b82800160010185558215620001b7579182015b82811115620001b75782518255916020019190600101906200019a565b50620001c5929150620001c9565b5090565b620001e691905b80821115620001c55760008155600101620001d0565b90565b612f0b80620001f96000396000f3fe6080604052600436106102035763ffffffff7c0100000000000000000000000000000000000000000000000000000000600035041663061dff9a8114610208578063096968da1461022a5780630ae1b13d1461024a578063137a3c961461026a5780631721ed48146102a357806324a4bedc146102c35780632844d6e2146102f05780632ebe3bc414610310578063313f51641461033057806335fe91a4146103505780633958f20d146103725780633a0f78371461039657806340731c24146103a95780634637de3c146103db5780634896a8a9146103fb5780634ae060981461041e5780634cc8e6c9146104315780635950eb5b146104515780635c2d4184146104665780635c53583b146104795780635f342aea146104995780636146fe6f146104b95780636217e645146104d957806366d2f2fd146104f9578063725009d314610519578063732fa7c714610539578063777928ab146105595780637d46d7351461057b5780638645d3da1461059b5780638c8e13b9146105bb5780638da5cb5b146105db57806390f42b38146105fd5780639481a0fb1461061d5780639b099a591461064d578063a5dc8f771461066d578063a8010a6514610682578063ac76b06b146106a2578063bbe15627146106b7578063be34ebbf146106ee578063c8dc632614610703578063d7a1cfe114610733578063d94c783a14610753575b600080fd5b34801561021457600080fd5b506102286102233660046126cf565b610766565b005b34801561023657600080fd5b50610228610245366004612777565b61085e565b34801561025657600080fd5b50610228610265366004612843565b610935565b34801561027657600080fd5b5061028a610285366004612971565b610a11565b60405161029a9493929190612d06565b60405180910390f35b3480156102af57600080fd5b506102286102be366004612971565b610bf4565b3480156102cf57600080fd5b506102e36102de3660046126cf565b610c5c565b60405161029a9190612cd0565b3480156102fc57600080fd5b5061022861030b366004612939565b610cde565b34801561031c57600080fd5b5061022861032b36600461280e565b610d5b565b34801561033c57600080fd5b5061022861034b366004612971565b610d89565b34801561035c57600080fd5b50610365610dcb565b60405161029a9190612cbf565b34801561037e57600080fd5b50610387610e41565b60405161029a93929190612d56565b6102286103a4366004612843565b61100b565b3480156103b557600080fd5b506103c96103c4366004612971565b6110e8565b60405161029a96959493929190612b83565b3480156103e757600080fd5b506102286103f63660046126cf565b611358565b34801561040757600080fd5b50610410611390565b60405161029a929190612ce1565b61022861042c366004612879565b6114e0565b34801561043d57600080fd5b5061022861044c36600461280e565b6115e6565b34801561045d57600080fd5b506102e3611610565b61022861047436600461272f565b61167a565b34801561048557600080fd5b5061022861049436600461280e565b611792565b3480156104a557600080fd5b506102286104b43660046126f5565b611807565b3480156104c557600080fd5b506102286104d4366004612843565b611891565b3480156104e557600080fd5b506102286104f436600461298f565b6118ff565b34801561050557600080fd5b506102286105143660046129de565b611977565b34801561052557600080fd5b50610228610534366004612971565b611a0e565b34801561054557600080fd5b50610228610554366004612971565b611a77565b34801561056557600080fd5b5061056e611ae0565b60405161029a9190612e0c565b34801561058757600080fd5b506102286105963660046126cf565b611ae6565b3480156105a757600080fd5b506102286105b63660046127dc565b611b3c565b3480156105c757600080fd5b506104106105d63660046126cf565b611b79565b3480156105e757600080fd5b506105f0611cdb565b60405161029a9190612b6f565b34801561060957600080fd5b506102286106183660046126cf565b611cea565b34801561062957600080fd5b5061063d610638366004612971565b611d14565b60405161029a9493929190612d98565b34801561065957600080fd5b5061022861066836600461298f565b611e10565b34801561067957600080fd5b5061056e611e8b565b34801561068e57600080fd5b5061022861069d36600461280e565b611ea1565b3480156106ae57600080fd5b5061056e611ecb565b3480156106c357600080fd5b506106d76106d23660046126cf565b611ed1565b60405161029a9b9a99989796959493929190612bf2565b3480156106fa57600080fd5b50610365612272565b34801561070f57600080fd5b5061072361071e3660046126cf565b6122e5565b60405161029a9493929190612dd2565b34801561073f57600080fd5b5061022861074e3660046126cf565b6123a4565b6102286107613660046129bf565b612442565b336000908152600e602052604090206005015460ff16151561078757600080fd5b336000908152600e60209081526040808320600160a060020a0385168452600a0190915290205460ff16156107bb57600080fd5b336000818152600e60209081526040808320600160a060020a0395909516808452818420600880880180546001818101835591885286882001805473ffffffffffffffffffffffffffffffffffffffff199081168617909155918301805480830182559088528688200180549092168817909155958552600a9081018452828520805460ff19908116881790915591855290950190915290208054909216179055565b336000908152600e602052604090206005015460ff16151561087f57600080fd5b336000908152600e60209081526040808320600160a060020a0387168452600a01909152902054839060ff1615156001146108b957600080fd5b6000828152600c6020526040902054600160a060020a031633141561092f57600160a060020a0384166000908152600e602052604090206007018054839081106108ff57fe5b60009182526020808320909101829055600160a060020a0386168252600e90526040902060060180546000190190555b50505050565b336000908152600e602052604090206005015460ff16151561095657600080fd5b6001805480820182556000818152600c6020908152604090912085519293610983939101918601906125b8565b506000818152600c60209081526040909120426002820155805473ffffffffffffffffffffffffffffffffffffffff19163317815583516109cc926008909201918501906125b8565b506000818152600c60209081526040808320600a01849055338352600e8252822060068101805460019081019091556007909101805491820181558352912001555050565b6060806000606080600d60008781526020019081526020016000206001018054600181600116156101000203166002900480601f016020809104026020016040519081016040528092919081815260200182805460018160011615610100020316600290048015610ac35780601f10610a9857610100808354040283529160200191610ac3565b820191906000526020600020905b815481529060010190602001808311610aa657829003601f168201915b5050506000898152600d602090815260409182902060038101546002918201805485516101006001831615026000190190911693909304601f8101859004850284018501909552848352969750600160a060020a031695606095509093509190830182828015610b745780601f10610b4957610100808354040283529160200191610b74565b820191906000526020600020905b815481529060010190602001808311610b5757829003601f168201915b505050505090506060600d60008a8152602001908152602001600020600401805480602002602001604051908101604052809291908181526020018280548015610bdd57602002820191906000526020600020905b815481526020019060010190808311610bc9575b50979d959c50959a50919850929650505050505050565b336000908152600e602052604090206005015460ff161515610c1557600080fd5b336000908152600e60205260409020600701805482908110610c3357fe5b60009182526020808320909101829055338252600e905260409020600601805460001901905550565b606080600e600084600160a060020a0316600160a060020a03168152602001908152602001600020600701805480602002602001604051908101604052809291908181526020018280548015610cd157602002820191906000526020600020905b815481526020019060010190808311610cbd575b5093979650505050505050565b336000908152600e602052604090206005015460ff161515610cff57600080fd5b610d098383610935565b6000818152600c602090815260409091208451610d2e926001909201918601906125b8565b506000908152600d6020908152604082206001805460049092018054918201815584529190922001555050565b600554600160a060020a03163314610d7257600080fd5b8051610d859060089060208401906125b8565b5050565b336000908152600e602052604090206005015460ff161515610daa57600080fd5b336000908152600b602052604090205460ff161515600114610c1557600080fd5b336000908152600e60209081526040918290206009018054835181840281018401909452808452606093849390929190830182828015610e3457602002820191906000526020600020905b8154600160a060020a03168152600190910190602001808311610e16575b5093955050505050505b90565b6007805460408051602060026001851615610100026000190190941693909304601f81018490048402820184019092528181526060938493849384939291830182828015610ed05780601f10610ea557610100808354040283529160200191610ed0565b820191906000526020600020905b815481529060010190602001808311610eb357829003601f168201915b505060088054604080516020601f6002600019610100600188161502019095169490940493840181900481028201810190925282815296975060609695509193509150830182828015610f645780601f10610f3957610100808354040283529160200191610f64565b820191906000526020600020905b815481529060010190602001808311610f4757829003601f168201915b505060098054604080516020601f6002600019610100600188161502019095169490940493840181900481028201810190925282815296975060609695509193509150830182828015610ff85780601f10610fcd57610100808354040283529160200191610ff8565b820191906000526020600020905b815481529060010190602001808311610fdb57829003601f168201915b50969a9599509297509395505050505050565b6002805460018082019092556000818152600d602090815260409091208281558551929361103e939101918601906125b8565b506000818152600d6020908152604090912060038101805473ffffffffffffffffffffffffffffffffffffffff1916331790558351611085926002909201918501906125b8565b506000908152600d602090815260408083203380855260059091018352818420805460ff191660019081179091556003805491820190558452600a909252909120805473ffffffffffffffffffffffffffffffffffffffff191690911790555050565b6000818152600c602090815260408083208054600a820154600192830180548551600261010096831615969096026000190190911694909404601f81018790048702850187019095528484528695606095869586958995600160a060020a039091169490938793908301828280156111a15780601f10611176576101008083540402835291602001916111a1565b820191906000526020600020905b81548152906001019060200180831161118457829003601f168201915b50505060008d8152600c60209081526040918290206008018054835160026001831615610100026000190190921691909104601f8101849004840282018401909452838152959650606095945092508301828280156112415780601f1061121657610100808354040283529160200191611241565b820191906000526020600020905b81548152906001019060200180831161122457829003601f168201915b505050505090506060600c60008d8152602001908152602001600020600501805480602002602001604051908101604052809291908181526020016000905b8282101561132b5760008481526020908190208301805460408051601f60026000196101006001871615020190941693909304928301859004850281018501909152818152928301828280156113175780601f106112ec57610100808354040283529160200191611317565b820191906000526020600020905b8154815290600101906020018083116112fa57829003601f168201915b505050505081526020019060010190611280565b50505060009d8e5250600c6020526040909c2060030154949c939b929a5090985090965091945092505050565b600554600160a060020a0316331461136f57600080fd5b600160a060020a03166000908152600b60205260409020805460ff19169055565b336000908152600e60208181526040928390209091018054835160026001831615610100026000190190921691909104601f810184900484028201840190945283815260609384938493919083018282801561142d5780601f106114025761010080835404028352916020019161142d565b820191906000526020600020905b81548152906001019060200180831161141057829003601f168201915b5050336000908152600e6020908152604091829020600f018054835160026001831615610100026000190190921691909104601f8101849004840282018401909452838152969750606096955093509091508301828280156114d05780601f106114a5576101008083540402835291602001916114d0565b820191906000526020600020905b8154815290600101906020018083116114b357829003601f168201915b5095975092955050505050509091565b336000908152600e602052604090206005015460ff16801561150157600080fd5b6003805460018082018355336000818152600e60209081526040909120808401859055805473ffffffffffffffffffffffffffffffffffffffff1916909217825560058201805460ff191690931790925587519293611565939101918801906125b8565b50336000908152600e60209081526040909120875161158c926002909201918901906125b8565b50336000908152600e6020908152604090912085516115b3926004909201918701906125b8565b506000908152600a60205260409020805473ffffffffffffffffffffffffffffffffffffffff1916331790555050505050565b600554600160a060020a031633146115fd57600080fd5b8051610d859060099060208401906125b8565b336000908152600e60209081526040918290206007018054835181840281018401909452808452606093849390929190830182828015610e3457602002820191906000526020600020905b81548152602001906001019080831161165b5750939550505050505090565b336000908152600e602052604090206005015460ff16151561169b57600080fd5b336000908152600e60209081526040808320600160a060020a0386168452600a01909152902054829060ff1615156001146116d557600080fd5b6001805480820182556000818152600c6020908152604090912085519293611702939101918601906125b8565b506000818152600c60209081526040808320426002820155805473ffffffffffffffffffffffffffffffffffffffff1916339081179091558352600e8252808320600690810180546001908101909155805481018155600160a060020a0398909816808552918420600781018054808b018255908652938520909301949094559091520180549093019092555050565b336000908152600e602052604090206005015460ff1615156117b357600080fd5b336000908152600f6020908152604090912082516117d3928401906125b8565b5050336000818152600f60205260409020600101805473ffffffffffffffffffffffffffffffffffffffff19169091179055565b336000908152600e602052604090206005015460ff16151561182857600080fd5b600160a060020a0382166000908152600f602052604090206002810154601411158061185957506014816003015410155b1561188c576001821515141561187957600281018054600101905561188c565b81151561188c5760038101805460010190555b505050565b336000908152600e602052604090206005015460ff1615156118b257600080fd5b336000908152600e6020818152604090922084516118d8939190920191908501906125b8565b50336000908152600e60209081526040909120825161188c92600f909201918401906125b8565b336000908152600e602052604090206005015460ff16151561192057600080fd5b6000828152600d6020526040902060030154600160a060020a0316331461194657600080fd5b6000918252600d60209081526040808420600160a060020a039093168452600590920190529020805460ff19169055565b336000908152600e602052604090206005015460ff16151561199857600080fd5b6000828152600d6020908152604080832033845260050190915290205460ff1615156001146119c657600080fd5b336000908152600e602052604090206007018054829081106119e457fe5b60009182526020808320909101829055338252600e90526040902060060180546000190190555050565b6000818152600c60209081526040808320338452600601909152902054819060ff1615611a3a57600080fd5b506000818152600c60208181526040808420338552600681018352908420805460ff19166001908117909155949093525260030180549091019055565b6000818152600c60209081526040808320338452600701909152902054819060ff1615611aa357600080fd5b506000818152600c60208181526040808420338552600781018352908420805460ff19166001908117909155949093525260040180549091019055565b60015490565b336000908152600e602052604090206005015460ff161515611b0757600080fd5b336000908152600e60209081526040808320600160a060020a03949094168352600b909301905220805460ff19166001179055565b336000908152600e602052604090206005015460ff161515611b5d57600080fd5b506000908152600c602052604090206009018054600101905550565b600160a060020a0381166000908152600e60208181526040928390209091018054835160026001831615610100026000190190921691909104601f8101849004840282018401909452838152606093849384939190830182828015611c1f5780601f10611bf457610100808354040283529160200191611c1f565b820191906000526020600020905b815481529060010190602001808311611c0257829003601f168201915b50505050600160a060020a0386166000908152600e6020908152604091829020600f018054835160026001831615610100026000190190921691909104601f810184900484028201840190945283815294955060609493509190830182828015611cca5780601f10611c9f57610100808354040283529160200191611cca565b820191906000526020600020905b815481529060010190602001808311611cad57829003601f168201915b509597509295505050505050915091565b600054600160a060020a031681565b600554600160a060020a03163314611d0157600080fd5b600160a060020a0316600052600b602052565b6000818152600a6020908152604080832054600160a060020a03168352600e82528083206003018054825160026101006001841615026000190190921691909104601f81018590048502820185019093528281526060949384938493879392909190830182828015611dc75780601f10611d9c57610100808354040283529160200191611dc7565b820191906000526020600020905b815481529060010190602001808311611daa57829003601f168201915b50505060009889525050600a6020908152604080892054600160a060020a039081168a52600e909252909720600881015460068201549154929990989197509116945092505050565b336000908152600e602052604090206005015460ff161515611e3157600080fd5b6000828152600d6020526040902060030154600160a060020a03163314611e5757600080fd5b6000918252600d60209081526040808420600160a060020a039093168452600590920190529020805460ff19166001179055565b336000908152600e602052604090206006015490565b600554600160a060020a03163314611eb857600080fd5b8051610d859060079060208401906125b8565b60035490565b600e6020908152600091825260409182902080546001808301546002808501805488516101009582161595909502600019011691909104601f8101879004870284018701909752868352600160a060020a03909316959094919291830182828015611f7d5780601f10611f5257610100808354040283529160200191611f7d565b820191906000526020600020905b815481529060010190602001808311611f6057829003601f168201915b5050505060038301805460408051602060026001851615610100026000190190941693909304601f810184900484028201840190925281815294959493509083018282801561200d5780601f10611fe25761010080835404028352916020019161200d565b820191906000526020600020905b815481529060010190602001808311611ff057829003601f168201915b5050505060048301805460408051602060026001851615610100026000190190941693909304601f810184900484028201840190925281815294959493509083018282801561209d5780601f106120725761010080835404028352916020019161209d565b820191906000526020600020905b81548152906001019060200180831161208057829003601f168201915b5050505060058301546006840154600c8501805460408051602060026101006001861615026000190190941693909304601f8101849004840282018401909252818152969760ff909516969395509083018282801561213d5780601f106121125761010080835404028352916020019161213d565b820191906000526020600020905b81548152906001019060200180831161212057829003601f168201915b50505050600d830154600e8401805460408051602060026101006001861615026000190190941693909304601f8101849004840282018401909252818152959660ff90941695939450908301828280156121d85780601f106121ad576101008083540402835291602001916121d8565b820191906000526020600020905b8154815290600101906020018083116121bb57829003601f168201915b50505050600f8301805460408051602060026001851615610100026000190190941693909304601f81018490048402820184019092528181529495949350908301828280156122685780601f1061223d57610100808354040283529160200191612268565b820191906000526020600020905b81548152906001019060200180831161224b57829003601f168201915b505050505090508b565b336000908152600e60209081526040918290206008018054835181840281018401909452808452606093849390929190830182828015610e3457602002820191906000526020600020908154600160a060020a03168152600190910190602001808311610e165750939550505050505090565b600f6020908152600091825260409182902080548351601f6002600019610100600186161502019093169290920491820184900484028101840190945280845290929183919083018282801561237c5780601f106123515761010080835404028352916020019161237c565b820191906000526020600020905b81548152906001019060200180831161235f57829003601f168201915b50505050600183015460028401546003909401549293600160a060020a039091169290915084565b336000908152600e602052604090206005015460ff1615156123c557600080fd5b336000908152600e60209081526040808320600160a060020a0385168452600a0190915290205460ff16156123f957600080fd5b600160a060020a03166000908152600e6020908152604082206009018054600181018255908352912001805473ffffffffffffffffffffffffffffffffffffffff191633179055565b6060600e600033600160a060020a0316600160a060020a031681526020019081526020016000206003018260405160200180807f2d2d3e0000000000000000000000000000000000000000000000000000000000815250600301838054600181600116156101000203166002900480156124f35780601f106124d15761010080835404028352918201916124f3565b820191906000526020600020905b8154815290600101906020018083116124df575b5050807f3a2000000000000000000000000000000000000000000000000000000000000081525060020182805190602001908083835b602083106125485780518252601f199092019160209182019101612529565b51815160209384036101000a60001901801990921691161790526040805192909401828103601f19018352845260008a8152600c82529384206005018054600181018083559186529482902083519399509097506125b1965090930193509186019190506125b8565b5050505050565b828054600181600116156101000203166002900490600052602060002090601f016020900481019282601f106125f957805160ff1916838001178555612626565b82800160010185558215612626579182015b8281111561262657825182559160200191906001019061260b565b50612632929150612636565b5090565b610e3e91905b80821115612632576000815560010161263c565b600061265c8235612e73565b9392505050565b600061265c8235612e7e565b6000601f8201831361268057600080fd5b813561269361268e82612e41565b612e1a565b915080825260208301602083018583830111156126af57600080fd5b6126ba838284612e8f565b50505092915050565b600061265c8235610e3e565b6000602082840312156126e157600080fd5b60006126ed8484612650565b949350505050565b6000806040838503121561270857600080fd5b60006127148585612650565b925050602061272585828601612663565b9150509250929050565b6000806040838503121561274257600080fd5b600061274e8585612650565b925050602083013567ffffffffffffffff81111561276b57600080fd5b6127258582860161266f565b60008060006060848603121561278c57600080fd5b60006127988686612650565b935050602084013567ffffffffffffffff8111156127b557600080fd5b6127c18682870161266f565b92505060406127d2868287016126c3565b9150509250925092565b6000806000606084860312156127f157600080fd5b60006127fd8686612650565b93505060206127c1868287016126c3565b60006020828403121561282057600080fd5b813567ffffffffffffffff81111561283757600080fd5b6126ed8482850161266f565b6000806040838503121561285657600080fd5b823567ffffffffffffffff81111561286d57600080fd5b61274e8582860161266f565b6000806000806080858703121561288f57600080fd5b843567ffffffffffffffff8111156128a657600080fd5b6128b28782880161266f565b945050602085013567ffffffffffffffff8111156128cf57600080fd5b6128db8782880161266f565b935050604085013567ffffffffffffffff8111156128f857600080fd5b6129048782880161266f565b925050606085013567ffffffffffffffff81111561292157600080fd5b61292d8782880161266f565b91505092959194509250565b60008060006060848603121561294e57600080fd5b833567ffffffffffffffff81111561296557600080fd5b6127988682870161266f565b60006020828403121561298357600080fd5b60006126ed84846126c3565b600080604083850312156129a257600080fd5b60006129ae85856126c3565b925050602061272585828601612650565b600080604083850312156129d257600080fd5b600061274e85856126c3565b600080604083850312156129f157600080fd5b60006129fd85856126c3565b9250506020612725858286016126c3565b612a1781612e73565b82525050565b6000612a2882612e6f565b808452602084019350612a3a83612e69565b60005b82811015612a6a57612a50868351612a0e565b612a5982612e69565b602096909601959150600101612a3d565b5093949350505050565b6000612a7f82612e6f565b80845260208401935083602082028501612a9885612e69565b60005b84811015612acf578383038852612ab3838351612b31565b9250612abe82612e69565b602098909801979150600101612a9b565b50909695505050505050565b6000612ae682612e6f565b808452602084019350612af883612e69565b60005b82811015612a6a57612b0e868351612b66565b612b1782612e69565b602096909601959150600101612afb565b612a1781612e7e565b6000612b3c82612e6f565b808452612b50816020860160208601612e9b565b612b5981612ec7565b9093016020019392505050565b612a1781610e3e565b60208101612b7d8284612a0e565b92915050565b60c08101612b918289612a0e565b612b9e6020830188612b66565b8181036040830152612bb08187612b31565b90508181036060830152612bc48186612b31565b90508181036080830152612bd88185612a74565b9050612be760a0830184612b66565b979650505050505050565b6101608101612c01828e612a0e565b612c0e602083018d612b66565b8181036040830152612c20818c612b31565b90508181036060830152612c34818b612b31565b90508181036080830152612c48818a612b31565b9050612c5760a0830189612b28565b612c6460c0830188612b66565b81810360e0830152612c768187612b31565b9050612c86610100830186612b28565b818103610120830152612c998185612b31565b9050818103610140830152612cae8184612b31565b9d9c50505050505050505050505050565b6020808252810161265c8184612a1d565b6020808252810161265c8184612adb565b60408082528101612cf28185612b31565b905081810360208301526126ed8184612b31565b60808082528101612d178187612b31565b90508181036020830152612d2b8186612b31565b9050612d3a6040830185612a0e565b8181036060830152612d4c8184612adb565b9695505050505050565b60608082528101612d678186612b31565b90508181036020830152612d7b8185612b31565b90508181036040830152612d8f8184612b31565b95945050505050565b60808082528101612da98187612b31565b9050612db86020830186612b66565b612dc56040830185612b66565b612d8f6060830184612a0e565b60808082528101612de38187612b31565b9050612df26020830186612a0e565b612dff6040830185612b66565b612d8f6060830184612b66565b60208101612b7d8284612b66565b60405181810167ffffffffffffffff81118282101715612e3957600080fd5b604052919050565b600067ffffffffffffffff821115612e5857600080fd5b506020601f91909101601f19160190565b60200190565b5190565b6000612b7d82612e83565b151590565b600160a060020a031690565b82818337506000910152565b60005b83811015612eb6578181015183820152602001612e9e565b8381111561092f5750506000910152565b601f01601f19169056fea265627a7a72305820465cf4a3736f2f039fbeae28f638b88c5a1c853a6efd77e2d77864c34ecbde396c6578706572696d656e74616cf500373078424535326536373832333138413530363843386233336534643933343036",
  "source": "pragma solidity 0.5.0;\npragma experimental ABIEncoderV2;\n\n//           ___                                                                  _\n//          /__/|__                                                            __//|\n//          |__|/_/|__                                                       _/_|_||\n//          |_|___|/_/|__ ---              John 3:16 KJV           ---    __/_|___||\n//          |___|____|/_/|__                                           __/_|____|_||\n//          |_|___|_____|/_/|_________________________________________/_|_____|___||\n//          |___|___|__|___|/__/___/___/___/___/___/___/___/___/___/_|_____|____|_||\n//          |_|___|___|___|___|___|___|___|___|___|___|___|___|___|___|___|___|___||\n//          |___|___|___|___|___|___|___|___|___|___|___|___|___|___|___|___|___|_||\n//          |_|___|___|___|___|___|___|___|___|___|___|___|___|___|___|___|___|___|/       \n\n// Original concept made for the ethereum Blockchain\n// Future implementations will be deployed to another blockchain\n// All functions commented out are designed to run on a blockchain that supports private transactions   \n\ncontract SocialNet {\n    address public owner;\n\n    struct Post {\n        address publisher;\n        string message;\n        uint date;\n        uint likeCount;\n        uint dislikeCount;\n        string[] replies;\n        mapping(address => bool) likes;\n        mapping(address => bool) dislikes;\n// ipfs hash\n        string image;\n        uint flags;\n        uint postNo;\n        uint[] posts;\n    }\n\n    struct Profile {\n        address add;\n        uint ID;\n        string location;\n        string name;\n        string description;\n        bool status;\n        uint postsCounter;\n        uint[] posts;\n        address[] friends;\n        address[] friendRequests;\n//        mapping(address => bool) pendingRequests;\n        mapping(address => bool) friendss;\n        mapping(address => bool) blocked;\n// ipfs hash\n        string avatar;\n        bool mod;\n\n        string sessionID;\n        string sessionQR;\n    }\n\n    struct Message {\n        string message;\n        uint time;\n// ipfs hash\n        string image;\n    }\n\n    struct ModApp {\n// application description\n        string description;\n        address profile;\n        uint upVotes;\n        uint downVotes;\n    }\n\n    struct Page{\n        uint ID;\n        string name;\n        string description;\n        address creator;\n        uint[] posts;\n        mapping(address => bool) moderators;\n    }\n\n    uint postCount;\n    uint pageCount;\n    uint profilesCount;\n// ImageRegistryOracle is a IPFS address -- pass in a hash of\n// a image the oracle decodes hash and runs it through binwalk using Pyodide\n// -- if it passes.. add to the users ipfs node and add to the merkle tree in the smart contract\n    address IPFSRegistryOracle;\n    address AndyChris;\n    string TORhiddenServiceOracleAddress;\n    string xmrAddress;\n    string btcAddress;\n    string ipfsAddress;\n    mapping(uint => address) profiless;\n    mapping(address => bool) moderators;\n    mapping(uint => Post) posts;\n    mapping(uint => Page) pages;\n    mapping(address => Profile) public profiles;\n    mapping(address => ModApp) public modApps;\n// address -- post index -- reason for removal -- true == resolved\n    mapping(address => mapping(uint => uint)) flagged;\n    mapping(address => mapping(address => bool)) private likes;\n    mapping(address => mapping(address => bool)) private dislikes;\n\n    event PostCreated(uint id, string content, uint tipAmount, address payable author);\n    event PostTipped(uint id, string content, uint tipAmount, address payable author);\n\n    constructor () public {\n        AndyChris = msg.sender;\n        xmrAddress = '0xBE52e6782318A5068C8b33e4d93406D3f6cd16DA';\n        btcAddress = '0xBE52e6782318A5068C8b33e4d93406D3f6cd16DA';\n        ipfsAddress = '0xBE52e6782318A5068C8b33e4d93406D3f6cd16DA';\n    }\n\n    modifier isAndyChris() {\n        require(msg.sender == AndyChris);\n        _;\n    }\n\n\n    modifier onlyRegistered {\n        require(profiles[msg.sender].status);\n        _;\n    }\n\n    modifier onlyModerator {\n        require(profiles[msg.sender].status);\n        _;\n    }\n\n    modifier friends (address _friendsAccount) {\n        require(profiles[msg.sender].friendss[_friendsAccount] == true);\n        _;\n    }\n\n\n    modifier notLikedYet (uint numberPost) {\n        require(posts[numberPost].likes[msg.sender] == false);\n        _;\n    }\n\n    modifier notDislikedYet (uint numberPost) {\n        require(posts[numberPost].dislikes[msg.sender] == false);\n        _;\n    }\n\n    function getPostsAmount() public view returns (uint256) {\n        return postCount;\n    }\n\n    function getProfilesAmount() public view returns (uint256) {\n        return profilesCount;\n    }\n\n    function getMyPosts() public view returns (uint[] memory pos){\n        uint[] memory pos = profiles[msg.sender].posts;\n        return (pos);\n    }\n\n    function getUsersPosts(address user) public view returns (uint[] memory pos){\n        uint[] memory pos = profiles[user].posts;\n        return (pos);\n    }\n\n    function getMyPostno() public view returns (uint posNo){\n        uint posNo = profiles[msg.sender].postsCounter;\n        return (posNo);\n    }\n    \n    function setXmrAddress(string memory xmr) public isAndyChris(){\n        xmrAddress = xmr;\n    }\n\n    function setbtcAddress(string memory btc) public isAndyChris(){\n        btcAddress = btc;\n    }\n\n   function setIPFSAddress(string memory ipfs) public isAndyChris(){\n        ipfsAddress = ipfs;\n    }\n\n\n    function getHomeData() public view returns (string memory xmr, string memory btc, \n                                                          string memory ipfs){\n        string memory xmr = xmrAddress;\n        string memory btc = btcAddress;\n        string memory ipfs = ipfsAddress;\n        return (xmr, btc, ipfs);\n    }\n\n    function getPost(uint256 id) public view returns ( address publisher, uint postsCounter, \n                                                       string memory message, string memory image, \n                                                       string[] memory replies, uint likes){\n        address publisher = posts[id].publisher;\n        uint postsCounter = posts[id].postNo;\n        string memory message = posts[id].message;\n        string memory image = posts[id].image;\n        string[] memory replies = posts[id].replies;\n        uint likes = posts[id].likeCount;\n        return (publisher, postsCounter, message, image, replies, likes);\n    }\n\n    function reply(uint256 id, string memory reply) public payable{\n       // posts[id].replies.push(reply);\n        string memory _reply = string(abi.encodePacked('-->', profiles[msg.sender].name, \": \", reply));\n        posts[id].replies.push(_reply);\n    }\n\n\n    function createAccount (string memory _location, string memory _name, string memory  _description,\n                            string memory _avatar) \n                            public payable {\n        bool status = profiles[msg.sender].status;\n        if (status) // if profile exists...\n            revert();\n        uint ID = profilesCount++;\n        profiles[msg.sender].ID = ID;\n        profiles[msg.sender].add = msg.sender;\n        profiles[msg.sender].status = true;\n        profiles[msg.sender].name = _name;\n        profiles[msg.sender].location = _location;\n        profiles[msg.sender].description = _description;\n        profiless[ID] = msg.sender;\n        }\n\n    function createPage (string memory _name, string memory _description) public payable {\n        uint pCount = pageCount++;\n        pages[pCount].ID = pCount;\n        pages[pCount].name = _name;\n        pages[pCount].creator = msg.sender;\n        pages[pCount].description = _description;\n        pages[pCount].moderators[msg.sender] = true;\n        profiless[profilesCount++] = msg.sender;\n        }\n\n    function getPage (uint id) public view returns(string memory name, string memory description,\n                                                   address creator, uint[] memory pos){\n        string memory name = pages[id].name;\n        address creator = pages[id].creator;\n        string memory description = pages[id].description;\n        uint[] memory pos = pages[id].posts;\n        return(name, description, creator, pos);\n        }\n\n\n    function getAccountCard (uint member) public view returns(string memory name, uint followers,\n                             uint pCount, address add){\n        string memory name = profiles[profiless[member]].name;\n//        string memory avatar = profiles[profiless[member]].avatar;\n        uint followers = profiles[profiless[member]].friends.length;\n        uint pCount = profiles[profiless[member]].postsCounter;\n        address add = profiles[profiless[member]].add;\n        return (name, followers, pCount, add);\n        }\n    \n    function applyForModerator (string memory _description) public onlyRegistered{\n        modApps[msg.sender].description = _description;\n        modApps[msg.sender].profile = msg.sender;\n    }\n\n// First vote to 20 wins\n    function voteForModerator (address user, bool vote) public onlyRegistered{\n        ModApp storage app = modApps[user];\n        if (app.upVotes >= 20 || app.downVotes >= 20){\n            if (vote == true){\n                app.upVotes++;\n            } else if(vote == false){\n                app.downVotes++;\n            }\n        }\n    }\n\n    function flag (address profile, uint index, uint reason)public  onlyRegistered{\n        posts[index].flags++;\n    }\n\n    function getMyFriends() public view returns (address[] memory friends){\n        address[] memory friends = profiles[msg.sender].friends;\n        return (friends);\n    }\n\n    function getMyFriendRequests() public view returns (address[] memory friendsR){\n        address[] memory friendsR = profiles[msg.sender].friendRequests;\n        return (friendsR);\n    }\n\n    function addFriend (address _friendsAccount) public onlyRegistered {\n        require(!profiles[msg.sender].friendss[_friendsAccount]); // require not friends currently\n    //    profiles[_friendsAccount].pendingRequests[msg.sender] = true;\n        Profile storage p = profiles[_friendsAccount];\n        uint m = profiles[msg.sender].ID;\n        p.friendRequests.push(msg.sender);\n    }\n\n    function approveRequest (address addr) public onlyRegistered {\n        require(!profiles[msg.sender].friendss[addr]); \n        Profile storage p = profiles[msg.sender];\n        Profile storage f = profiles[addr];\n        p.friends.push(addr);\n        f.friends.push(msg.sender);\n        profiles[addr].friendss[msg.sender] = true;\n        profiles[msg.sender].friendss[addr] = true;\n        //      delete profiles[msg.sender].friendRequests[addr];\n    }\n\n    function blockGuy (address _friendsAccount) public onlyRegistered {\n        profiles[msg.sender].blocked[_friendsAccount] = true;\n    }\n\n    function postInFriendsWall (address _friendsAccount, string memory _message) public payable onlyRegistered\n                               friends (_friendsAccount) {\n        uint num = postCount++;\n        posts[num].message = _message;\n        posts[num].date = now;\n        posts[num].publisher = msg.sender;\n        profiles[msg.sender].postsCounter++;\n        postCount++;\n        profiles[_friendsAccount].posts.push(num);\n        profiles[_friendsAccount].postsCounter++;\n    }\n\n    function removeFriendWallPost (address _friendsAccount, string memory _message, uint index)\n                                  public onlyRegistered friends (_friendsAccount){\n        if (posts[index].publisher == msg.sender){\n            delete profiles[_friendsAccount].posts[index];\n            profiles[_friendsAccount].postsCounter--;\n        }\n    }\n\n    function post (string memory _message, string memory image) public onlyRegistered{\n        uint num = postCount++;\n        posts[num].message = _message;\n        posts[num].date = now;\n        posts[num].publisher = msg.sender;\n        posts[num].image = image;\n        posts[num].postNo = num;\n        profiles[msg.sender].postsCounter++;\n        Profile storage p = profiles[msg.sender];\n        p.posts.push(num);\n    }\n\n    function postInPage (string memory _message, string memory image, uint ID) public onlyRegistered{\n        post(_message, image);\n        posts[ID].message = _message;\n        Page storage p = pages[ID];\n        p.posts.push(postCount);\n    }\n\n    function removePost (uint index)public onlyRegistered{\n        delete profiles[msg.sender].posts[index];\n        profiles[msg.sender].postsCounter--;\n    }\n\n    function removePostInPage (uint ID, uint index)public onlyRegistered{\n        require(pages[ID].moderators[msg.sender] == true);\n        delete profiles[msg.sender].posts[index];\n        profiles[msg.sender].postsCounter--;\n    }\n\n    function removePostMod (uint index)public onlyRegistered{\n        require(moderators[msg.sender] == true);\n        delete profiles[msg.sender].posts[index];\n        profiles[msg.sender].postsCounter--;\n    }\n\n    function likePost (uint numberPost) public \n                       notLikedYet (numberPost){\n        posts[numberPost].likes[msg.sender] = true;\n        posts[numberPost].likeCount ++;\n    }\n\n    function dislikePost (uint numberPost) public \n                          notDislikedYet (numberPost){\n        posts[numberPost].dislikes[msg.sender] = true;\n        posts[numberPost].dislikeCount ++;\n    }\n\n    function createMod (address mod)public isAndyChris{\n        moderators[mod] == true;\n    }\n\n    function createPageMod (uint ID, address mod)public onlyRegistered{\n        require(pages[ID].creator == msg.sender);\n        pages[ID].moderators[mod] = true;\n    }\n\n    function removeMod (address mod)public isAndyChris{\n        moderators[mod] = false;\n    }\n\n    function removePageMod (uint ID, address mod)public onlyRegistered{\n        require(pages[ID].creator == msg.sender);\n        pages[ID].moderators[mod] = false;\n    }\n\n    function getSession(address add) public view returns(string memory ID, string memory QR){\n        string memory ID = profiles[add].sessionID;\n        string memory QR = profiles[add].sessionQR;\n        return(ID, QR);\n    }\n\n    function getMySession() public view returns(string memory ID, string memory QR){\n        string memory ID = profiles[msg.sender].sessionID;\n        string memory QR = profiles[msg.sender].sessionQR;\n        return(ID, QR);\n    }\n\n    function setSession (string memory ID, string memory QR)public onlyRegistered{\n        profiles[msg.sender].sessionID = ID;\n        profiles[msg.sender].sessionQR = QR;\n    }\n\n\n///////////////////////////////////////////////////////////////////////////////////////////////////\n//                                        INTERNALS\n///////////////////////////////////////////////////////////////////////////////////////////////////\n\n// creates accessReqistry contract and writes the address to users profile - can only be created once\n    function createAccessReqistry(string memory name, string memory symbol, address payable creator)\n                                  internal returns(address newCon){\n                                  }\n}",
  "sourcePath": "/home/a/Documents/a/b/dapp1/Dapp/contracts/SocialNet.sol",
  "compiler": {
    "name": "solc",
    "version": "0.5.0+commit.1d4f565a.Emscripten.clang"
  },
  "schemaVersion": "3.0.5",
  "updatedAt": "2021-05-13T09:35:50.279Z",
  "devdoc": {
    "methods": {}
  },
  "userdoc": {
    "methods": {}
  }
}