{
  "contractName": "SocialNet",
  "abi": [
    {
      "constant": true,
      "inputs": [],
      "name": "owner",
      "outputs": [
        {
          "name": "",
          "type": "address"
        }
      ],
      "payable": false,
      "stateMutability": "view",
      "type": "function",
      "signature": "0x8da5cb5b"
    },
    {
      "constant": true,
      "inputs": [
        {
          "name": "",
          "type": "address"
        }
      ],
      "name": "profiles",
      "outputs": [
        {
          "name": "location",
          "type": "string"
        },
        {
          "name": "name",
          "type": "string"
        },
        {
          "name": "description",
          "type": "string"
        },
        {
          "name": "status",
          "type": "bool"
        },
        {
          "name": "postsCounter",
          "type": "uint256"
        },
        {
          "name": "avatar",
          "type": "string"
        },
        {
          "name": "mod",
          "type": "bool"
        },
        {
          "name": "accessRegistry",
          "type": "address"
        },
        {
          "name": "messageContract",
          "type": "address"
        }
      ],
      "payable": false,
      "stateMutability": "view",
      "type": "function",
      "signature": "0xbbe15627"
    },
    {
      "constant": true,
      "inputs": [
        {
          "name": "",
          "type": "address"
        }
      ],
      "name": "modApps",
      "outputs": [
        {
          "name": "description",
          "type": "string"
        },
        {
          "name": "profile",
          "type": "address"
        },
        {
          "name": "upVotes",
          "type": "uint256"
        },
        {
          "name": "downVotes",
          "type": "uint256"
        }
      ],
      "payable": false,
      "stateMutability": "view",
      "type": "function",
      "signature": "0xc8dc6326"
    },
    {
      "inputs": [],
      "payable": false,
      "stateMutability": "nonpayable",
      "type": "constructor",
      "signature": "constructor"
    },
    {
      "anonymous": false,
      "inputs": [
        {
          "indexed": false,
          "name": "id",
          "type": "uint256"
        },
        {
          "indexed": false,
          "name": "content",
          "type": "string"
        },
        {
          "indexed": false,
          "name": "tipAmount",
          "type": "uint256"
        },
        {
          "indexed": false,
          "name": "author",
          "type": "address"
        }
      ],
      "name": "PostCreated",
      "type": "event",
      "signature": "0xc66336337a24e513f909b3b25119854dba8385d51307dbc7d31d1b2805e19c7e"
    },
    {
      "anonymous": false,
      "inputs": [
        {
          "indexed": false,
          "name": "id",
          "type": "uint256"
        },
        {
          "indexed": false,
          "name": "content",
          "type": "string"
        },
        {
          "indexed": false,
          "name": "tipAmount",
          "type": "uint256"
        },
        {
          "indexed": false,
          "name": "author",
          "type": "address"
        }
      ],
      "name": "PostTipped",
      "type": "event",
      "signature": "0x20988fe475351e75813672abada1dddb7ac67cbbeb81e61e1160b8329d8cdf1c"
    },
    {
      "constant": true,
      "inputs": [],
      "name": "getPostsAmount",
      "outputs": [
        {
          "name": "",
          "type": "uint256"
        }
      ],
      "payable": false,
      "stateMutability": "view",
      "type": "function",
      "signature": "0x777928ab"
    },
    {
      "constant": true,
      "inputs": [
        {
          "name": "id",
          "type": "uint256"
        }
      ],
      "name": "getPost",
      "outputs": [
        {
          "name": "publisher",
          "type": "address"
        },
        {
          "name": "postNo",
          "type": "uint256"
        },
        {
          "name": "date",
          "type": "uint256"
        },
        {
          "name": "message",
          "type": "string"
        },
        {
          "name": "image",
          "type": "string"
        }
      ],
      "payable": false,
      "stateMutability": "view",
      "type": "function",
      "signature": "0x40731c24"
    },
    {
      "constant": false,
      "inputs": [
        {
          "name": "_location",
          "type": "string"
        },
        {
          "name": "_name",
          "type": "string"
        },
        {
          "name": "_description",
          "type": "string"
        }
      ],
      "name": "createAccount",
      "outputs": [],
      "payable": true,
      "stateMutability": "payable",
      "type": "function",
      "signature": "0xbc53c0c4"
    },
    {
      "constant": true,
      "inputs": [
        {
          "name": "member",
          "type": "address"
        }
      ],
      "name": "getAccountCard",
      "outputs": [
        {
          "name": "",
          "type": "string"
        },
        {
          "name": "",
          "type": "uint256"
        },
        {
          "name": "",
          "type": "uint256"
        },
        {
          "name": "",
          "type": "string"
        }
      ],
      "payable": false,
      "stateMutability": "view",
      "type": "function",
      "signature": "0x46123078"
    },
    {
      "constant": false,
      "inputs": [
        {
          "name": "_description",
          "type": "string"
        }
      ],
      "name": "applyForModerator",
      "outputs": [],
      "payable": false,
      "stateMutability": "nonpayable",
      "type": "function",
      "signature": "0x5c53583b"
    },
    {
      "constant": false,
      "inputs": [
        {
          "name": "user",
          "type": "address"
        },
        {
          "name": "vote",
          "type": "bool"
        }
      ],
      "name": "voteForModerator",
      "outputs": [],
      "payable": false,
      "stateMutability": "nonpayable",
      "type": "function",
      "signature": "0x5f342aea"
    },
    {
      "constant": false,
      "inputs": [
        {
          "name": "profile",
          "type": "address"
        },
        {
          "name": "index",
          "type": "uint256"
        },
        {
          "name": "reason",
          "type": "uint256"
        }
      ],
      "name": "flag",
      "outputs": [],
      "payable": false,
      "stateMutability": "nonpayable",
      "type": "function",
      "signature": "0x8645d3da"
    },
    {
      "constant": false,
      "inputs": [
        {
          "name": "_friendsAccount",
          "type": "address"
        }
      ],
      "name": "addFriend",
      "outputs": [],
      "payable": false,
      "stateMutability": "nonpayable",
      "type": "function",
      "signature": "0xd7a1cfe1"
    },
    {
      "constant": false,
      "inputs": [
        {
          "name": "_friendsAccount",
          "type": "address"
        }
      ],
      "name": "approveRequest",
      "outputs": [],
      "payable": false,
      "stateMutability": "nonpayable",
      "type": "function",
      "signature": "0x061dff9a"
    },
    {
      "constant": false,
      "inputs": [
        {
          "name": "_friendsAccount",
          "type": "address"
        }
      ],
      "name": "blockGuy",
      "outputs": [],
      "payable": false,
      "stateMutability": "nonpayable",
      "type": "function",
      "signature": "0x7d46d735"
    },
    {
      "constant": false,
      "inputs": [
        {
          "name": "_friendsAccount",
          "type": "address"
        },
        {
          "name": "_message",
          "type": "string"
        }
      ],
      "name": "postInFriendsWall",
      "outputs": [],
      "payable": true,
      "stateMutability": "payable",
      "type": "function",
      "signature": "0x5c2d4184"
    },
    {
      "constant": false,
      "inputs": [
        {
          "name": "_friendsAccount",
          "type": "address"
        },
        {
          "name": "_message",
          "type": "string"
        },
        {
          "name": "index",
          "type": "uint256"
        }
      ],
      "name": "removeFriendWallPost",
      "outputs": [],
      "payable": false,
      "stateMutability": "nonpayable",
      "type": "function",
      "signature": "0x096968da"
    },
    {
      "constant": false,
      "inputs": [
        {
          "name": "_message",
          "type": "string"
        },
        {
          "name": "image",
          "type": "string"
        }
      ],
      "name": "post",
      "outputs": [],
      "payable": false,
      "stateMutability": "nonpayable",
      "type": "function",
      "signature": "0x0ae1b13d"
    },
    {
      "constant": false,
      "inputs": [
        {
          "name": "index",
          "type": "uint256"
        }
      ],
      "name": "removePost",
      "outputs": [],
      "payable": false,
      "stateMutability": "nonpayable",
      "type": "function",
      "signature": "0x1721ed48"
    },
    {
      "constant": false,
      "inputs": [
        {
          "name": "_friendsAccount",
          "type": "address"
        },
        {
          "name": "numberPost",
          "type": "uint256"
        }
      ],
      "name": "likePost",
      "outputs": [],
      "payable": false,
      "stateMutability": "nonpayable",
      "type": "function",
      "signature": "0x48351529"
    },
    {
      "constant": false,
      "inputs": [
        {
          "name": "_friendsAccount",
          "type": "address"
        },
        {
          "name": "numberPost",
          "type": "uint256"
        }
      ],
      "name": "dislikePost",
      "outputs": [],
      "payable": false,
      "stateMutability": "nonpayable",
      "type": "function",
      "signature": "0xfa00eb8d"
    }
  ],
  "bytecode": "0x608060405234801561001057600080fd5b5060008054600160a060020a03191633179055611bf0806100326000396000f3fe6080604052600436106101065763ffffffff7c0100000000000000000000000000000000000000000000000000000000600035041663061dff9a811461010b578063096968da146101405780630ae1b13d146102055780631721ed481461033f57806340731c2414610369578063461230781461049857806348351529146105b75780635c2d4184146105f05780635c53583b146106a65780635f342aea14610759578063777928ab146107945780637d46d735146107bb5780638645d3da146107ee5780638da5cb5b1461082d578063bbe156271461085e578063bc53c0c414610a8a578063c8dc632614610c3e578063d7a1cfe114610d10578063fa00eb8d14610d43575b600080fd5b34801561011757600080fd5b5061013e6004803603602081101561012e57600080fd5b5035600160a060020a0316610d7c565b005b34801561014c57600080fd5b5061013e6004803603606081101561016357600080fd5b600160a060020a03823516919081019060408101602082013564010000000081111561018e57600080fd5b8201836020820111156101a057600080fd5b803590602001918460018302840111640100000000831117156101c257600080fd5b91908080601f0160208091040260200160405190810160405280939291908181526020018383808284376000920191909152509295505091359250610e07915050565b34801561021157600080fd5b5061013e6004803603604081101561022857600080fd5b81019060208101813564010000000081111561024357600080fd5b82018360208201111561025557600080fd5b8035906020019184600183028401116401000000008311171561027757600080fd5b91908080601f01602080910402602001604051908101604052809392919081815260200183838082843760009201919091525092959493602081019350359150506401000000008111156102ca57600080fd5b8201836020820111156102dc57600080fd5b803590602001918460018302840111640100000000831117156102fe57600080fd5b91908080601f016020809104026020016040519081016040528093929190818152602001838380828437600092019190915250929550610ede945050505050565b34801561034b57600080fd5b5061013e6004803603602081101561036257600080fd5b5035610f9d565b34801561037557600080fd5b506103936004803603602081101561038c57600080fd5b5035611005565b6040518086600160a060020a0316600160a060020a031681526020018581526020018481526020018060200180602001838103835285818151815260200191508051906020019080838360005b838110156103f85781810151838201526020016103e0565b50505050905090810190601f1680156104255780820380516001836020036101000a031916815260200191505b50838103825284518152845160209182019186019080838360005b83811015610458578181015183820152602001610440565b50505050905090810190601f1680156104855780820380516001836020036101000a031916815260200191505b5097505050505050505060405180910390f35b3480156104a457600080fd5b506104cb600480360360208110156104bb57600080fd5b5035600160a060020a0316611178565b604051808060200185815260200184815260200180602001838103835287818151815260200191508051906020019080838360005b83811015610518578181015183820152602001610500565b50505050905090810190601f1680156105455780820380516001836020036101000a031916815260200191505b50838103825284518152845160209182019186019080838360005b83811015610578578181015183820152602001610560565b50505050905090810190601f1680156105a55780820380516001836020036101000a031916815260200191505b50965050505050505060405180910390f35b3480156105c357600080fd5b5061013e600480360360408110156105da57600080fd5b50600160a060020a038135169060200135611312565b61013e6004803603604081101561060657600080fd5b600160a060020a03823516919081019060408101602082013564010000000081111561063157600080fd5b82018360208201111561064357600080fd5b8035906020019184600183028401116401000000008311171561066557600080fd5b91908080601f01602080910402602001604051908101604052809392919081815260200183838082843760009201919091525092955061137f945050505050565b3480156106b257600080fd5b5061013e600480360360208110156106c957600080fd5b8101906020810181356401000000008111156106e457600080fd5b8201836020820111156106f657600080fd5b8035906020019184600183028401116401000000008311171561071857600080fd5b91908080601f016020809104026020016040519081016040528093929190818152602001838380828437600092019190915250929550611497945050505050565b34801561076557600080fd5b5061013e6004803603604081101561077c57600080fd5b50600160a060020a038135169060200135151561150c565b3480156107a057600080fd5b506107a9611596565b60408051918252519081900360200190f35b3480156107c757600080fd5b5061013e600480360360208110156107de57600080fd5b5035600160a060020a031661159d565b3480156107fa57600080fd5b5061013e6004803603606081101561081157600080fd5b50600160a060020a0381351690602081013590604001356115f3565b34801561083957600080fd5b50610842611630565b60408051600160a060020a039092168252519081900360200190f35b34801561086a57600080fd5b506108916004803603602081101561088157600080fd5b5035600160a060020a031661163f565b604051808060200180602001806020018a151515158152602001898152602001806020018815151515815260200187600160a060020a0316600160a060020a0316815260200186600160a060020a0316600160a060020a0316815260200185810385528e818151815260200191508051906020019080838360005b8381101561092457818101518382015260200161090c565b50505050905090810190601f1680156109515780820380516001836020036101000a031916815260200191505b5085810384528d5181528d516020918201918f019080838360005b8381101561098457818101518382015260200161096c565b50505050905090810190601f1680156109b15780820380516001836020036101000a031916815260200191505b5085810383528c5181528c516020918201918e019080838360005b838110156109e45781810151838201526020016109cc565b50505050905090810190601f168015610a115780820380516001836020036101000a031916815260200191505b5085810382528951815289516020918201918b019080838360005b83811015610a44578181015183820152602001610a2c565b50505050905090810190601f168015610a715780820380516001836020036101000a031916815260200191505b509d505050505050505050505050505060405180910390f35b61013e60048036036060811015610aa057600080fd5b810190602081018135640100000000811115610abb57600080fd5b820183602082011115610acd57600080fd5b80359060200191846001830284011164010000000083111715610aef57600080fd5b91908080601f0160208091040260200160405190810160405280939291908181526020018383808284376000920191909152509295949360208101935035915050640100000000811115610b4257600080fd5b820183602082011115610b5457600080fd5b80359060200191846001830284011164010000000083111715610b7657600080fd5b91908080601f0160208091040260200160405190810160405280939291908181526020018383808284376000920191909152509295949360208101935035915050640100000000811115610bc957600080fd5b820183602082011115610bdb57600080fd5b80359060200191846001830284011164010000000083111715610bfd57600080fd5b91908080601f0160208091040260200160405190810160405280939291908181526020018383808284376000920191909152509295506118d3945050505050565b348015610c4a57600080fd5b50610c7160048036036020811015610c6157600080fd5b5035600160a060020a031661197a565b604051808060200185600160a060020a0316600160a060020a03168152602001848152602001838152602001828103825286818151815260200191508051906020019080838360005b83811015610cd2578181015183820152602001610cba565b50505050905090810190601f168015610cff5780820380516001836020036101000a031916815260200191505b509550505050505060405180910390f35b348015610d1c57600080fd5b5061013e60048036036020811015610d3357600080fd5b5035600160a060020a0316611a39565b348015610d4f57600080fd5b5061013e60048036036040811015610d6657600080fd5b50600160a060020a038135169060200135611ac0565b3360009081526006602052604090206003015460ff161515610d9d57600080fd5b336000908152600660209081526040808320600160a060020a038516845260070190915290205460ff161515610dd257600080fd5b336000908152600660209081526040808320600160a060020a039490941683526008909301905220805460ff19166001179055565b3360009081526006602052604090206003015460ff161515610e2857600080fd5b336000908152600660209081526040808320600160a060020a0387168452600801909152902054839060ff161515600114610e6257600080fd5b600082815260056020526040902054600160a060020a0316331415610ed857600160a060020a0384166000908152600660205260409020600501805483908110610ea857fe5b60009182526020808320909101829055600160a060020a0386168252600690526040902060040180546000190190555b50505050565b3360009081526006602052604090206003015460ff161515610eff57600080fd5b600180548082018255600081815260056020908152604090912085519293610f2c93910191860190611b2c565b506000818152600560208181526040909220426002820155805473ffffffffffffffffffffffffffffffffffffffff1916331781558451610f7593919092019190850190611b2c565b5050336000908152600660205260409020600401805460019081019091558054810190555050565b3360009081526006602052604090206003015460ff161515610fbe57600080fd5b336000908152600660205260409020600501805482908110610fdc57fe5b600091825260208083209091018290553382526006905260409020600401805460001901905550565b6000818152600560209081526040808320805460078201546002808401546001948501805487516101009782161597909702600019011692909204601f8101889004880286018801909652858552879687966060968796600160a060020a031695948793919290918301828280156110be5780601f10611093576101008083540402835291602001916110be565b820191906000526020600020905b8154815290600101906020018083116110a157829003601f168201915b50505060008d8152600560208181526040928390209091018054835160026001831615610100026000190190921691909104601f81018490048402820184019094528381529596506060959450925083018282801561115e5780601f106111335761010080835404028352916020019161115e565b820191906000526020600020905b81548152906001019060200180831161114157829003601f168201915b50989f979e50959c50939a50909850939650505050505050565b60606000806060806006600033600160a060020a0316600160a060020a031681526020019081526020016000206001018054600181600116156101000203166002900480601f01602080910402602001604051908101604052809291908181526020018280546001816001161561010002031660029004801561123c5780601f106112115761010080835404028352916020019161123c565b820191906000526020600020905b81548152906001019060200180831161121f57829003601f168201915b505033600090815260066020908152604091829020600c018054835160026001831615610100026000190190921691909104601f8101849004840282018401909452838152969750606096955093509091508301828280156112df5780601f106112b4576101008083540402835291602001916112df565b820191906000526020600020905b8154815290600101906020018083116112c257829003601f168201915b505033600090815260066020819052604090912090810154600490910154969c909b509599509297509395505050505050565b60008181526005602090815260408083203384526003019091529020548290829060ff161561134057600080fd5b50506000818152600560208181526040808420338552600381018352908420805460ff1916600190811790915594909352526009018054909101905550565b3360009081526006602052604090206003015460ff1615156113a057600080fd5b336000908152600660209081526040808320600160a060020a0386168452600801909152902054829060ff1615156001146113da57600080fd5b60018054808201825560008181526005602090815260409091208551929361140793910191860190611b2c565b506000818152600560208181526040808420426002820155805473ffffffffffffffffffffffffffffffffffffffff191633908117909155845260068252808420600490810180546001908101909155805481018155600160a060020a03999099168086529185209384018054808b01825590865292852090920194909455929091520180549093019092555050565b3360009081526006602052604090206003015460ff1615156114b857600080fd5b33600090815260076020908152604090912082516114d892840190611b2c565b5050336000818152600760205260409020600101805473ffffffffffffffffffffffffffffffffffffffff19169091179055565b3360009081526006602052604090206003015460ff16151561152d57600080fd5b600160a060020a03821660009081526007602052604090206002810154601411158061155e57506014816003015410155b15611591576001821515141561157e576002810180546001019055611591565b8115156115915760038101805460010190555b505050565b6001545b90565b3360009081526006602052604090206003015460ff1615156115be57600080fd5b336000908152600660209081526040808320600160a060020a039490941683526009909301905220805460ff19166001179055565b3360009081526006602052604090206003015460ff16151561161457600080fd5b5060009081526005602052604090206006018054600101905550565b600054600160a060020a031681565b60066020908152600091825260409182902080548351601f600260001961010060018616150201909316929092049182018490048402810184019094528084529092918391908301828280156116d65780601f106116ab576101008083540402835291602001916116d6565b820191906000526020600020905b8154815290600101906020018083116116b957829003601f168201915b505050505090806001018054600181600116156101000203166002900480601f0160208091040260200160405190810160405280929190818152602001828054600181600116156101000203166002900480156117745780601f1061174957610100808354040283529160200191611774565b820191906000526020600020905b81548152906001019060200180831161175757829003601f168201915b50505060028085018054604080516020601f60001961010060018716150201909416959095049283018590048502810185019091528181529596959450909250908301828280156118065780601f106117db57610100808354040283529160200191611806565b820191906000526020600020905b8154815290600101906020018083116117e957829003601f168201915b5050505060038301546004840154600c8501805460408051602060026101006001861615026000190190941693909304601f8101849004840282018401909252818152969760ff90951696939550908301828280156118a65780601f1061187b576101008083540402835291602001916118a6565b820191906000526020600020905b81548152906001019060200180831161188957829003601f168201915b505050600d840154600e90940154929360ff811693600160a060020a036101009092048216935016905089565b3360009081526006602052604090206003015460ff1680156118f457600080fd5b33600090815260066020908152604090912060038101805460ff19166001908117909155855161192b939290910191860190611b2c565b50336000908152600660209081526040909120855161194c92870190611b2c565b50336000908152600660209081526040909120835161197392600290920191850190611b2c565b5050505050565b60076020908152600091825260409182902080548351601f60026000196101006001861615020190931692909204918201849004840281018401909452808452909291839190830182828015611a115780601f106119e657610100808354040283529160200191611a11565b820191906000526020600020905b8154815290600101906020018083116119f457829003601f168201915b50505050600183015460028401546003909401549293600160a060020a039091169290915084565b3360009081526006602052604090206003015460ff161515611a5a57600080fd5b336000908152600660209081526040808320600160a060020a038516845260080190915290205460ff1615611a8e57600080fd5b600160a060020a031660009081526006602090815260408083203384526007019091529020805460ff19166001179055565b60008181526005602090815260408083203384526004019091529020548290829060ff1615611aee57600080fd5b50506000818152600560208181526040808420338552600481018352908420805460ff19166001179055939092529052600901805460001901905550565b828054600181600116156101000203166002900490600052602060002090601f016020900481019282601f10611b6d57805160ff1916838001178555611b9a565b82800160010185558215611b9a579182015b82811115611b9a578251825591602001919060010190611b7f565b50611ba6929150611baa565b5090565b61159a91905b80821115611ba65760008155600101611bb056fea165627a7a7230582011dab7fdd9facaef6e9b15b8b5efcc81d4e4578b58ad205cae38c121da34bab30029",
  "source": "pragma solidity 0.5.0;\nimport \"./SafeMath.sol\";\nimport \"./Message.sol\";\n\n//           ___                                                                  _\n//          /__/|__                                                            __//|\n//          |__|/_/|__                                                       _/_|_||\n//          |_|___|/_/|__ ---              John 3:16 KJV           ---    __/_|___||\n//          |___|____|/_/|__                                           __/_|____|_||\n//          |_|___|_____|/_/|_________________________________________/_|_____|___||\n//          |___|___|__|___|/__/___/___/___/___/___/___/___/___/___/_|_____|____|_||\n//          |_|___|___|___|___|___|___|___|___|___|___|___|___|___|___|___|___|___||\n//          |___|___|___|___|___|___|___|___|___|___|___|___|___|___|___|___|___|_||\n//          |_|___|___|___|___|___|___|___|___|___|___|___|___|___|___|___|___|___|/       \n\n// Original concept made for the ethereum Blockchain\n// Future implementations will be deployed to another blockchain\n// All functions commented out are designed to run on a blockchain that supports private transactions   \n\ncontract SocialNet {\n    address public owner;\n\n    struct Post {\n        address publisher;\n        string message;\n        uint date;\n        mapping(address => bool) likes;\n        mapping(address => bool) dislikes;\n// ipfs hash\n        string image;\n        uint flags;\n        uint postNo;\n        uint[] posts;\n        uint score;\n    }\n\n    struct Profile {\n        string location;\n        string name;\n        string description;\n//        uint likesCounter;\n//        uint dislikesCounter;\n        bool status;\n        uint postsCounter;\n        uint[] posts;\n        address[] friends;\n        mapping(address => bool) pendingRequests;\n        mapping(address => bool) friendss;\n        mapping(address => bool) blocked;\n        mapping(address => Message) messages;\n        mapping(address => bytes32) pinned;\n// ipfs hash\n        string avatar;\n        bool mod;\n// address of identity registry contract\n        address accessRegistry;\n        address messageContract;\n    }\n\n    struct Message {\n        string message;\n        uint time;\n// ipfs hash\n        string image;\n    }\n\n    struct ModApp {\n// application description\n        string description;\n        address profile;\n        uint upVotes;\n        uint downVotes;\n    }\n\n    uint postCount;\n// ImageRegistryOracle is a IPFS address -- pass in a hash of\n// a image the oracle decodes hash and runs it through binwalk using Pyodide\n// -- if it passes.. add to the users ipfs node and add to the merkle tree in the smart contract\n    address IPFSRegistryOracle;\n    string TORhiddenServiceOracleAddress;\n    address[] ipfsPins;\n    mapping(uint => Post) posts;\n    mapping(address => Profile) public profiles;\n    mapping(address => ModApp) public modApps;\n// address -- post index -- reason for removal -- true == resolved\n    mapping(address => mapping(uint => uint)) flagged;\n    mapping(address => mapping(address => bool)) private likes;\n    mapping(address => mapping(address => bool)) private dislikes;\n\n    event PostCreated(uint id, string content, uint tipAmount, address payable author);\n    event PostTipped(uint id, string content, uint tipAmount, address payable author);\n\n    constructor () public {\n        owner = msg.sender;\n    }\n\n    modifier onlyOwner {\n        require(msg.sender == owner);\n        _;\n    }\n\n    modifier onlyRegistered {\n        require(profiles[msg.sender].status);\n        _;\n    }\n\n    modifier onlyModerator {\n        require(profiles[msg.sender].status);\n        _;\n    }\n\n    modifier friends (address _friendsAccount) {\n        require(profiles[msg.sender].friendss[_friendsAccount] == true);\n        _;\n    }\n\n\n    modifier notLikedYet (address _friendsAccount, uint numberPost) {\n        require(posts[numberPost].likes[msg.sender] == false);\n        _;\n    }\n\n    modifier notDislikedYet (address _friendsAccount, uint numberPost) {\n        require(posts[numberPost].dislikes[msg.sender] == false);\n        _;\n    }\n\n    function getPostsAmount() public view returns (uint256) {\n        return postCount;\n    }\n\n    function getPost(uint256 id) public view returns ( address publisher, uint postNo, uint date, \n                                                       string memory message, string memory image){\n        address publisher = posts[id].publisher;\n        uint postNo = posts[id].postNo;\n        uint date = posts[id].date;\n        string memory message = posts[id].message;\n        string memory image = posts[id].image;\n        return (publisher, postNo, date, message, image);\n    }\n\n\n    function createAccount (string memory _location, string memory _name, string memory  _description) \n                            public payable {\n        bool status = profiles[msg.sender].status;\n        if (status) // if profile exists...\n            revert();\n        profiles[msg.sender].status = true;\n        profiles[msg.sender].name = _name;\n        profiles[msg.sender].location = _location;\n        profiles[msg.sender].description = _description;\n        }\n\n    function getAccountCard (address member) public view returns(string memory , uint , uint,\n                             string memory){\n        string memory name = profiles[msg.sender].name;\n        string memory avatar = profiles[msg.sender].avatar;\n        uint followers = profiles[msg.sender].friends.length;\n        uint pCount = profiles[msg.sender].postsCounter;\n        return (name, followers, pCount, avatar);\n        }\n    \n    function applyForModerator (string memory _description) public onlyRegistered{\n        modApps[msg.sender].description = _description;\n        modApps[msg.sender].profile = msg.sender;\n    }\n\n// First vote to 20 wins\n    function voteForModerator (address user, bool vote) public onlyRegistered{\n        ModApp storage app = modApps[user];\n        if (app.upVotes >= 20 || app.downVotes >= 20){\n            if (vote == true){\n                app.upVotes++;\n            } else if(vote == false){\n                app.downVotes++;\n            }\n        }\n    }\n\n    function flag (address profile, uint index, uint reason)public  onlyRegistered{\n        posts[index].flags++;\n //       if (profiles[profile].posts[index].flags.length >= 5){\n //           flagged[profile][index][profiles[profile].posts.flags.length] = ();\n //       }\n    }\n/*\n// A post with 5 flags must be resolved\n// True verdict deletes post\n// Reasons to remove -- 1 = porn, 2 = gore\n    function resolveFlagged (address _profile, uint _index, bool verdict, uint reason)\n                            public payable onlyModerator{\n        if (flagged[_profile][_index[1]] == false){\n            flagged[_profile][_index[0] = reason];\n            if (verdict == true){\n                flagged[_profile][_index[0] = reason];\n                delete profiles[_profile][_index][];\n            }else{\n                flagged[_profile][_index[0] = reason];\n            }\n        }\n    }\n*/\n//    function disputePostRemoval (uint _yearsOld, string _name, string _description) \n//                                payable onlyRegistered{\n//    }\n\n//    function voteOnDispute (uint _yearsOld, string _name, string _description) payable onlyRegistered{\n//    }\n\n    function addFriend (address _friendsAccount) public onlyRegistered {\n        require(!profiles[msg.sender].friendss[_friendsAccount]); // require not friends currently\n        profiles[_friendsAccount].pendingRequests[msg.sender] = true;\n    }\n\n    function approveRequest (address _friendsAccount) public onlyRegistered {\n        require(profiles[msg.sender].pendingRequests[_friendsAccount]); \n        profiles[msg.sender].friendss[_friendsAccount] = true;\n//       delete profiles[msg.sender].pendingRequests[_friendsAccount][msg.sender];\n    }\n\n    function blockGuy (address _friendsAccount) public onlyRegistered {\n        profiles[msg.sender].blocked[_friendsAccount] = true;\n    }\n\n    function postInFriendsWall (address _friendsAccount, string memory _message) public payable onlyRegistered\n                               friends (_friendsAccount) {\n        uint num = postCount++;\n        posts[num].message = _message;\n        posts[num].date = now;\n        posts[num].publisher = msg.sender;\n        profiles[msg.sender].postsCounter++;\n        postCount++;\n        profiles[_friendsAccount].posts.push(num);\n        profiles[_friendsAccount].postsCounter++;\n    }\n\n    function removeFriendWallPost (address _friendsAccount, string memory _message, uint index)\n                                  public onlyRegistered friends (_friendsAccount){\n        if (posts[index].publisher == msg.sender){\n            delete profiles[_friendsAccount].posts[index];\n            profiles[_friendsAccount].postsCounter--;\n        }\n    }\n\n    function post (string memory _message, string memory image) public onlyRegistered{\n        uint num = postCount++;\n        posts[num].message = _message;\n        posts[num].date = now;\n        posts[num].publisher = msg.sender;\n        posts[num].image = image;\n        profiles[msg.sender].postsCounter++;\n        postCount++;\n    }\n\n    function removePost (uint index)public onlyRegistered{\n        delete profiles[msg.sender].posts[index];\n        profiles[msg.sender].postsCounter--;\n    }\n\n    function likePost (address _friendsAccount, uint numberPost) public \n                       notLikedYet (_friendsAccount, numberPost){\n        posts[numberPost].likes[msg.sender] = true;\n        posts[numberPost].score ++;\n    }\n\n    function dislikePost (address _friendsAccount, uint numberPost) public \n                          notDislikedYet (_friendsAccount, numberPost){\n        posts[numberPost].dislikes[msg.sender] = true;\n        posts[numberPost].score --;\n    }\n\n///////////////////////////////////////////////////////////////////////////////////////////////////\n//                                        INTERNALS\n///////////////////////////////////////////////////////////////////////////////////////////////////\n\n    function createMod (uint _yearsOld, string memory _name, string memory _description) internal {\n        bool status = profiles[msg.sender].status;\n    }\n\n    function RemoveMod (uint _yearsOld, string memory _name, string memory _description) internal {\n        bool status = profiles[msg.sender].status;\n    }\n\n// creates accessReqistry contract and writes the address to users profile - can only be created once\n    function createAccessReqistry(string memory name, string memory symbol, address payable creator)\n                                  internal returns(address newCon){\n                                  }\n}",
  "sourcePath": "/home/a/Documents/d1/dapp1/Dapp/contracts/SocialNet.sol",
  "compiler": {
    "name": "solc",
    "version": "0.5.0+commit.1d4f565a.Emscripten.clang"
  },
  "schemaVersion": "3.0.5",
  "updatedAt": "2021-03-24T20:13:42.141Z",
  "devdoc": {
    "methods": {}
  },
  "userdoc": {
    "methods": {}
  }
}